{"abi":[{"type":"function","name":"approxMaxBorrow","inputs":[{"name":"token","type":"address","internalType":"address"}],"outputs":[{"name":"","type":"uint256","internalType":"uint256"}],"stateMutability":"view"},{"type":"function","name":"borrow","inputs":[{"name":"token","type":"address","internalType":"address"},{"name":"amount","type":"uint256","internalType":"uint256"}],"outputs":[],"stateMutability":"nonpayable"},{"type":"function","name":"getHealthFactor","inputs":[],"outputs":[{"name":"","type":"uint256","internalType":"uint256"}],"stateMutability":"view"},{"type":"function","name":"getVariableDebt","inputs":[{"name":"token","type":"address","internalType":"address"}],"outputs":[{"name":"","type":"uint256","internalType":"uint256"}],"stateMutability":"view"},{"type":"function","name":"oracle","inputs":[],"outputs":[{"name":"","type":"address","internalType":"contract IAaveOracle"}],"stateMutability":"view"},{"type":"function","name":"pool","inputs":[],"outputs":[{"name":"","type":"address","internalType":"contract IPool"}],"stateMutability":"view"},{"type":"function","name":"supply","inputs":[{"name":"token","type":"address","internalType":"address"},{"name":"amount","type":"uint256","internalType":"uint256"}],"outputs":[],"stateMutability":"nonpayable"}],"bytecode":{"object":"0x608060405234601c57600e6020565b61106b61002b823961106b90f35b6026565b60405190565b5f80fdfe60806040526004361015610013575b610415565b61001d5f3561008c565b806316f0115b14610087578063492a46a4146100825780634b8a35291461007d5780637dc0d1d0146100785780639a76b5c814610073578063a5f352b71461006e5763f2b9fdb80361000e576103e1565b6103ac565b610377565b610342565b610292565b610208565b610161565b60e01c90565b60405190565b5f80fd5b5f80fd5b5f9103126100aa57565b61009c565b7387870bca3f3fd6335c3f4ce8392d69350b4fa4e290565b60018060a01b031690565b90565b6100e96100e46100ee926100c7565b6100d2565b6100c7565b90565b6100fa906100d5565b90565b610106906100f1565b90565b6101196101146100af565b6100fd565b90565b610124610109565b90565b610130906100d5565b90565b61013c90610127565b90565b61014890610133565b9052565b919061015f905f6020850194019061013f565b565b34610191576101713660046100a0565b61018d61017c61011c565b610184610092565b9182918261014c565b0390f35b610098565b61019f906100c7565b90565b6101ab81610196565b036101b257565b5f80fd5b905035906101c3826101a2565b565b906020828203126101de576101db915f016101b6565b90565b61009c565b90565b6101ef906101e3565b9052565b9190610206905f602085019401906101e6565b565b346102385761023461022361021e3660046101c5565b610746565b61022b610092565b918291826101f3565b0390f35b610098565b610246816101e3565b0361024d57565b5f80fd5b9050359061025e8261023d565b565b9190604083820312610288578061027c610285925f86016101b6565b93602001610251565b90565b61009c565b5f0190565b346102c1576102ab6102a5366004610260565b90610926565b6102b3610092565b806102bd8161028d565b0390f35b610098565b7354586be62e3c3580375ae3723c145253060ca0c290565b6102e7906100d5565b90565b6102f3906102de565b90565b6103066103016102c6565b6102ea565b90565b6103116102f6565b90565b61031d90610127565b90565b61032990610314565b9052565b9190610340905f60208501940190610320565b565b34610372576103523660046100a0565b61036e61035d610309565b610365610092565b9182918261032d565b0390f35b610098565b346103a7576103a361039261038d3660046101c5565b610b31565b61039a610092565b918291826101f3565b0390f35b610098565b346103dc576103bc3660046100a0565b6103d86103c7610cf8565b6103cf610092565b918291826101f3565b0390f35b610098565b34610410576103fa6103f4366004610260565b90610e79565b610402610092565b8061040c8161028d565b0390f35b610098565b5f80fd5b5f90565b5f80fd5b601f801991011690565b634e487b7160e01b5f52604160045260245ffd5b9061044990610421565b810190811067ffffffffffffffff82111761046357604052565b61042b565b60e01b90565b5f80fd5b9061048561047e610092565b928361043f565b565b905051906104948261023d565b565b91906020838203126104be576104b8906104b06020610472565b935f01610487565b5f830152565b61046e565b6fffffffffffffffffffffffffffffffff1690565b6104e1816104c3565b036104e857565b5f80fd5b905051906104f9826104d8565b565b64ffffffffff1690565b61050e816104fb565b0361051557565b5f80fd5b9050519061052682610505565b565b61ffff1690565b61053881610528565b0361053f57565b5f80fd5b905051906105508261052f565b565b9050519061055f826101a2565b565b91906101e0838203126106955761068d9061057d6101e0610472565b9361058a825f8301610496565b5f86015261059b82602083016104ec565b60208601526105ad82604083016104ec565b60408601526105bf82606083016104ec565b60608601526105d182608083016104ec565b60808601526105e38260a083016104ec565b60a08601526105f58260c08301610519565b60c08601526106078260e08301610543565b60e086015261061a826101008301610552565b61010086015261062e826101208301610552565b610120860152610642826101408301610552565b610140860152610656826101608301610552565b61016086015261066a8261018083016104ec565b61018086015261067e826101a083016104ec565b6101a08601526101c0016104ec565b6101c0830152565b61046e565b906101e0828203126106b4576106b1915f01610561565b90565b61009c565b6106c290610196565b9052565b91906106d9905f602085019401906106b9565b565b6106e3610092565b3d5f823e3d90fd5b6106f59051610196565b90565b610701906100d5565b90565b61070d906106f8565b90565b61071990610127565b90565b61072590610127565b90565b906020828203126107415761073e915f01610487565b90565b61009c565b6101e061078d91610755610419565b50610766610761610109565b610133565b6107826335ea6a75610776610092565b95869485938493610468565b8352600483016106c6565b03915afa90811561086d576107c36107be6107b96101406107f5956020955f9161083e575b50016106eb565b610704565b610710565b6370a08231906107ea6107d53061071c565b926107de610092565b95869485938493610468565b8352600483016106c6565b03915afa908115610839575f9161080b575b5090565b61082c915060203d8111610832575b610824818361043f565b810190610728565b5f610807565b503d61081a565b6106db565b61086091506101e03d8111610866575b610858818361043f565b81019061069a565b5f6107b2565b503d61084e565b6106db565b5f91031261087c57565b61009c565b90565b61089861089361089d92610881565b6100d2565b6101e3565b90565b6108a990610884565b9052565b90565b6108c46108bf6108c9926108ad565b6100d2565b610528565b90565b6108d5906108b0565b9052565b909594926109249461091361091d926109096080966108ff60a088019c5f8901906106b9565b60208701906101e6565b60408501906108a0565b60608301906108cc565b01906106b9565b565b610936610931610109565b610133565b9163a415bcad9190926002925f61094c3061071c565b91833b156109c25761097f610974935f97938894610968610092565b9a8b998a988997610468565b8752600487016108d9565b03925af180156109bd57610991575b50565b6109b0905f3d81116109b6575b6109a8818361043f565b810190610872565b5f61098e565b503d61099e565b6106db565b61041d565b6109d0906100d5565b90565b6109dc906109c7565b90565b6109e890610127565b90565b60ff1690565b6109fa816109eb565b03610a0157565b5f80fd5b90505190610a12826109f1565b565b90602082820312610a2d57610a2a915f01610a05565b90565b61009c565b909160c082840312610a9157610a4a835f8401610487565b92610a588160208501610487565b92610a668260408301610487565b92610a8e610a778460608501610487565b93610a858160808601610487565b9360a001610487565b90565b61009c565b634e487b7160e01b5f52601160045260245ffd5b610ab3906109eb565b604d8111610ac157600a0a90565b610a96565b610ad5610adb919392936101e3565b926101e3565b91610ae78382026101e3565b928184041490151715610af657565b610a96565b634e487b7160e01b5f52601260045260245ffd5b610b1b610b21916101e3565b916101e3565b908115610b2c570490565b610afb565b610b7a90610b3d610419565b506020610b50610b4b6102f6565b610314565b63b3596f0790610b6f8492610b63610092565b96879485938493610468565b8352600483016106c6565b03915afa918215610cf357610ba5610ba0610bbb946020935f91610cc6575b50936109d3565b6109df565b63313ce56790610bb3610092565b948592610468565b82528180610bcb6004820161028d565b03915afa8015610cc157610c25925f91610c93575b5060c0610bf3610bee610109565b610133565b63bf92857c90610c1a610c053061071c565b92610c0e610092565b97889485938493610468565b8352600483016106c6565b03915afa908115610c8e57610c4e610c5492610c59955f808093915050610c5c575b5091610aaa565b90610ac6565b610b0f565b90565b610c7d915060c03d8111610c87575b610c75818361043f565b810190610a32565b5050509150610c47565b503d610c6b565b6106db565b610cb4915060203d8111610cba575b610cac818361043f565b810190610a14565b5f610be0565b503d610ca2565b6106db565b610ce69150843d8111610cec575b610cde818361043f565b810190610728565b5f610b99565b503d610cd4565b6106db565b610d00610419565b50610d4860c0610d16610d11610109565b610133565b63bf92857c90610d3d610d283061071c565b92610d31610092565b95869485938493610468565b8352600483016106c6565b03915afa908115610d9b575f808080808096945050505050610d69575b5090565b610d8a915060c03d8111610d94575b610d82818361043f565b810190610a32565b9450505050610d65565b503d610d78565b6106db565b151590565b610dae81610da0565b03610db557565b5f80fd5b90505190610dc682610da5565b565b90602082820312610de157610dde915f01610db9565b90565b61009c565b604090610e0f610e169496959396610e0560608401985f8501906106b9565b60208301906106b9565b01906101e6565b565b916020610e39929493610e3260408201965f8301906106b9565b01906101e6565b565b610e70610e7794610e66606094989795610e5c608086019a5f8701906106b9565b60208501906101e6565b60408301906106b9565b01906108cc565b565b610e8a610e8582610704565b610710565b60206323b872dd913390610eba5f610ea13061071c565b95610ec589610eae610092565b98899788968795610468565b855260048501610de6565b03925af1801561103057611004575b50610ee6610ee182610704565b610710565b602063095ea7b391610efe610ef9610109565b610133565b90610f1c5f8795610f27610f10610092565b97889687958694610468565b845260048401610e18565b03925af18015610fff57610fd3575b50610f47610f42610109565b610133565b9163617ba037919092610f593061071c565b5f823b15610fce575f94610f8b8692610f8094610f74610092565b998a9889978896610468565b865260048601610e3b565b03925af18015610fc957610f9d575b50565b610fbc905f3d8111610fc2575b610fb4818361043f565b810190610872565b5f610f9a565b503d610faa565b6106db565b61041d565b610ff39060203d8111610ff8575b610feb818361043f565b810190610dc8565b610f36565b503d610fe1565b6106db565b6110249060203d8111611029575b61101c818361043f565b810190610dc8565b610ed4565b503d611012565b6106db56fea264697066735822122088f92445011751715e2521b0ab9f989f509f9a26a5242d143d1ece8c2111bcd064736f6c634300081c0033","linkReferences":{}},"methodIdentifiers":{"approxMaxBorrow(address)":"9a76b5c8","borrow(address,uint256)":"4b8a3529","getHealthFactor()":"a5f352b7","getVariableDebt(address)":"492a46a4","oracle()":"7dc0d1d0","pool()":"16f0115b","supply(address,uint256)":"f2b9fdb8"},"id":24}