{"abi":[{"type":"function","name":"getSupplyBalance","inputs":[{"name":"token","type":"address","internalType":"address"}],"outputs":[{"name":"","type":"uint256","internalType":"uint256"}],"stateMutability":"view"},{"type":"function","name":"pool","inputs":[],"outputs":[{"name":"","type":"address","internalType":"contract IPool"}],"stateMutability":"view"},{"type":"function","name":"supply","inputs":[{"name":"token","type":"address","internalType":"address"},{"name":"amount","type":"uint256","internalType":"uint256"}],"outputs":[],"stateMutability":"nonpayable"},{"type":"function","name":"withdraw","inputs":[{"name":"token","type":"address","internalType":"address"},{"name":"amount","type":"uint256","internalType":"uint256"}],"outputs":[{"name":"","type":"uint256","internalType":"uint256"}],"stateMutability":"nonpayable"}],"bytecode":{"object":"0x608060405234601c57600e6020565b610afe61002b8239610afe90f35b6026565b60405190565b5f80fdfe60806040526004361015610013575b6102cc565b61001d5f3561005c565b806316f0115b14610057578063f2b9fdb814610052578063f38e266a1461004d5763f3fef3a30361000e57610296565b610261565b6101ed565b610131565b60e01c90565b60405190565b5f80fd5b5f80fd5b5f91031261007a57565b61006c565b7387870bca3f3fd6335c3f4ce8392d69350b4fa4e290565b60018060a01b031690565b90565b6100b96100b46100be92610097565b6100a2565b610097565b90565b6100ca906100a5565b90565b6100d6906100c1565b90565b6100e96100e461007f565b6100cd565b90565b6100f46100d9565b90565b610100906100a5565b90565b61010c906100f7565b90565b61011890610103565b9052565b919061012f905f6020850194019061010f565b565b3461016157610141366004610070565b61015d61014c6100ec565b610154610062565b9182918261011c565b0390f35b610068565b61016f90610097565b90565b61017b81610166565b0361018257565b5f80fd5b9050359061019382610172565b565b90565b6101a181610195565b036101a857565b5f80fd5b905035906101b982610198565b565b91906040838203126101e357806101d76101e0925f8601610186565b936020016101ac565b90565b61006c565b5f0190565b3461021c576102066102003660046101bb565b90610489565b61020e610062565b80610218816101e8565b0390f35b610068565b9060208282031261023a57610237915f01610186565b90565b61006c565b61024890610195565b9052565b919061025f905f6020850194019061023f565b565b346102915761028d61027c610277366004610221565b6108cd565b610284610062565b9182918261024c565b0390f35b610068565b346102c7576102c36102b26102ac3660046101bb565b90610a2b565b6102ba610062565b9182918261024c565b0390f35b610068565b5f80fd5b6102d9906100a5565b90565b6102e5906102d0565b90565b6102f1906100f7565b90565b6102fd906100f7565b90565b5f80fd5b601f801991011690565b634e487b7160e01b5f52604160045260245ffd5b9061032c90610304565b810190811067ffffffffffffffff82111761034657604052565b61030e565b60e01b90565b151590565b61035f81610351565b0361036657565b5f80fd5b9050519061037782610356565b565b906020828203126103925761038f915f0161036a565b90565b61006c565b6103a090610166565b9052565b6040906103cd6103d494969593966103c360608401985f850190610397565b6020830190610397565b019061023f565b565b6103de610062565b3d5f823e3d90fd5b91602061040792949361040060408201965f830190610397565b019061023f565b565b5f91031261041357565b61006c565b90565b61ffff1690565b61043661043161043b92610418565b6100a2565b61041b565b90565b61044790610422565b9052565b6104806104879461047660609498979561046c608086019a5f870190610397565b602085019061023f565b6040830190610397565b019061043e565b565b61049a610495826102dc565b6102e8565b60206323b872dd9133906104ca5f6104b1306102f4565b956104d5896104be610062565b9889978896879561034b565b8552600485016103a4565b03925af1801561064057610614575b506104f66104f1826102dc565b6102e8565b602063095ea7b39161050e6105096100d9565b610103565b9061052c5f8795610537610520610062565b9788968795869461034b565b8452600484016103e6565b03925af1801561060f576105e3575b506105576105526100d9565b610103565b9163617ba037919092610569306102f4565b5f823b156105de575f9461059b869261059094610584610062565b998a988997889661034b565b86526004860161044b565b03925af180156105d9576105ad575b50565b6105cc905f3d81116105d2575b6105c48183610322565b810190610409565b5f6105aa565b503d6105ba565b6103d6565b610300565b6106039060203d8111610608575b6105fb8183610322565b810190610379565b610546565b503d6105f1565b6103d6565b6106349060203d8111610639575b61062c8183610322565b810190610379565b6104e4565b503d610622565b6103d6565b5f90565b5f80fd5b90610660610659610062565b9283610322565b565b9050519061066f82610198565b565b9190602083820312610699576106939061068b602061064d565b935f01610662565b5f830152565b610649565b6fffffffffffffffffffffffffffffffff1690565b6106bc8161069e565b036106c357565b5f80fd5b905051906106d4826106b3565b565b64ffffffffff1690565b6106e9816106d6565b036106f057565b5f80fd5b90505190610701826106e0565b565b61070c8161041b565b0361071357565b5f80fd5b9050519061072482610703565b565b9050519061073382610172565b565b91906101e08382031261086957610861906107516101e061064d565b9361075e825f8301610671565b5f86015261076f82602083016106c7565b602086015261078182604083016106c7565b604086015261079382606083016106c7565b60608601526107a582608083016106c7565b60808601526107b78260a083016106c7565b60a08601526107c98260c083016106f4565b60c08601526107db8260e08301610717565b60e08601526107ee826101008301610726565b610100860152610802826101208301610726565b610120860152610816826101408301610726565b61014086015261082a826101608301610726565b61016086015261083e8261018083016106c7565b610180860152610852826101a083016106c7565b6101a08601526101c0016106c7565b6101c0830152565b610649565b906101e08282031261088857610885915f01610735565b90565b61006c565b91906108a0905f60208501940190610397565b565b6108ac9051610166565b90565b906020828203126108c8576108c5915f01610662565b90565b61006c565b6101e0610914916108dc610645565b506108ed6108e86100d9565b610103565b6109096335ea6a756108fd610062565b9586948593849361034b565b83526004830161088d565b03915afa9081156109f45761094a61094561094061010061097c956020955f916109c5575b50016108a2565b6102dc565b6102e8565b6370a082319061097161095c306102f4565b92610965610062565b9586948593849361034b565b83526004830161088d565b03915afa9081156109c0575f91610992575b5090565b6109b3915060203d81116109b9575b6109ab8183610322565b8101906108af565b5f61098e565b503d6109a1565b6103d6565b6109e791506101e03d81116109ed575b6109df8183610322565b81019061086e565b5f610939565b503d6109d5565b6103d6565b604090610a22610a299496959396610a1860608401985f850190610397565b602083019061023f565b0190610397565b565b90602090610a37610645565b50610a48610a436100d9565b610103565b610a745f6369328dec959395610a7f610a60306102f4565b610a68610062565b9889978896879561034b565b8552600485016109f9565b03925af1908115610ac3575f91610a95575b5090565b610ab6915060203d8111610abc575b610aae8183610322565b8101906108af565b5f610a91565b503d610aa4565b6103d656fea26469706673582212205299fc04ed4b161ee019ccc4c7a2d48aad73acaefa59ca4fa61a768ca96018b764736f6c634300081c0033","linkReferences":{}},"methodIdentifiers":{"getSupplyBalance(address)":"f38e266a","pool()":"16f0115b","supply(address,uint256)":"f2b9fdb8","withdraw(address,uint256)":"f3fef3a3"},"id":30}