{"abi":[{"type":"function","name":"borrow","inputs":[{"name":"token","type":"address","internalType":"address"},{"name":"amount","type":"uint256","internalType":"uint256"},{"name":"onBehalfOf","type":"address","internalType":"address"}],"outputs":[],"stateMutability":"nonpayable"},{"type":"function","name":"close","inputs":[{"name":"params","type":"tuple","internalType":"struct LongShort.CloseParams","components":[{"name":"collateralToken","type":"address","internalType":"address"},{"name":"collateralAmount","type":"uint256","internalType":"uint256"},{"name":"maxCollateralToWithdraw","type":"uint256","internalType":"uint256"},{"name":"borrowToken","type":"address","internalType":"address"},{"name":"maxDebtToRepay","type":"uint256","internalType":"uint256"},{"name":"minSwapAmountOut","type":"uint256","internalType":"uint256"},{"name":"swapData","type":"bytes","internalType":"bytes"}]}],"outputs":[{"name":"collateralWithdrawn","type":"uint256","internalType":"uint256"},{"name":"debtRepaidFromMsgSender","type":"uint256","internalType":"uint256"},{"name":"borrowedLeftover","type":"uint256","internalType":"uint256"}],"stateMutability":"nonpayable"},{"type":"function","name":"getATokenAddress","inputs":[{"name":"token","type":"address","internalType":"address"}],"outputs":[{"name":"","type":"address","internalType":"address"}],"stateMutability":"view"},{"type":"function","name":"getATokenBalance","inputs":[{"name":"token","type":"address","internalType":"address"},{"name":"user","type":"address","internalType":"address"}],"outputs":[{"name":"","type":"uint256","internalType":"uint256"}],"stateMutability":"view"},{"type":"function","name":"getHealthFactor","inputs":[{"name":"user","type":"address","internalType":"address"}],"outputs":[{"name":"","type":"uint256","internalType":"uint256"}],"stateMutability":"view"},{"type":"function","name":"getVariableDebt","inputs":[{"name":"token","type":"address","internalType":"address"},{"name":"user","type":"address","internalType":"address"}],"outputs":[{"name":"","type":"uint256","internalType":"uint256"}],"stateMutability":"view"},{"type":"function","name":"getVariableDebtTokenAddress","inputs":[{"name":"token","type":"address","internalType":"address"}],"outputs":[{"name":"","type":"address","internalType":"address"}],"stateMutability":"view"},{"type":"function","name":"open","inputs":[{"name":"params","type":"tuple","internalType":"struct LongShort.OpenParams","components":[{"name":"collateralToken","type":"address","internalType":"address"},{"name":"collateralAmount","type":"uint256","internalType":"uint256"},{"name":"borrowToken","type":"address","internalType":"address"},{"name":"borrowAmount","type":"uint256","internalType":"uint256"},{"name":"minHealthFactor","type":"uint256","internalType":"uint256"},{"name":"minSwapAmountOut","type":"uint256","internalType":"uint256"},{"name":"swapData","type":"bytes","internalType":"bytes"}]}],"outputs":[{"name":"collateralAmountOut","type":"uint256","internalType":"uint256"}],"stateMutability":"nonpayable"},{"type":"function","name":"pool","inputs":[],"outputs":[{"name":"","type":"address","internalType":"contract IPool"}],"stateMutability":"view"},{"type":"function","name":"repay","inputs":[{"name":"token","type":"address","internalType":"address"},{"name":"amount","type":"uint256","internalType":"uint256"},{"name":"onBehalfOf","type":"address","internalType":"address"}],"outputs":[{"name":"repaid","type":"uint256","internalType":"uint256"}],"stateMutability":"nonpayable"},{"type":"function","name":"router","inputs":[],"outputs":[{"name":"","type":"address","internalType":"contract ISwapRouter"}],"stateMutability":"view"},{"type":"function","name":"supply","inputs":[{"name":"token","type":"address","internalType":"address"},{"name":"amount","type":"uint256","internalType":"uint256"},{"name":"onBehalfOf","type":"address","internalType":"address"}],"outputs":[],"stateMutability":"nonpayable"},{"type":"function","name":"swap","inputs":[{"name":"tokenIn","type":"address","internalType":"address"},{"name":"tokenOut","type":"address","internalType":"address"},{"name":"amountIn","type":"uint256","internalType":"uint256"},{"name":"amountOutMin","type":"uint256","internalType":"uint256"},{"name":"receiver","type":"address","internalType":"address"},{"name":"data","type":"bytes","internalType":"bytes"}],"outputs":[{"name":"amountOut","type":"uint256","internalType":"uint256"}],"stateMutability":"nonpayable"},{"type":"function","name":"withdraw","inputs":[{"name":"token","type":"address","internalType":"address"},{"name":"amount","type":"uint256","internalType":"uint256"},{"name":"to","type":"address","internalType":"address"}],"outputs":[{"name":"withdrawn","type":"uint256","internalType":"uint256"}],"stateMutability":"nonpayable"}],"bytecode":{"object":"0x608060405234601c57600e6020565b61238561002b823961238590f35b6026565b60405190565b5f80fdfe60806040526004361015610013575b6109d2565b61001d5f356100fc565b80630130de75146100f757806316f0115b146100f2578063203660df146100ed57806320cd4215146100e85780632919192d146100e35780635ceae9c4146100de57806369328dec146100d95780636c665a55146100d4578063711cc005146100cf5780638b2a4df5146100ca57806394bf6fa7146100c5578063b69cbf9f146100c0578063f887ea40146100bb5763fe6bcd7c0361000e5761099d565b610968565b6108b0565b610800565b6107cc565b610797565b610723565b6106e8565b6106b2565b610642565b61060a565b6104bc565b61045a565b61036f565b60e01c90565b60405190565b5f80fd5b5f80fd5b5f80fd5b5f80fd5b601f801991011690565b634e487b7160e01b5f52604160045260245ffd5b9061014090610118565b810190811067ffffffffffffffff82111761015a57604052565b610122565b9061017261016b610102565b9283610136565b565b5f80fd5b60018060a01b031690565b61018c90610178565b90565b61019881610183565b0361019f57565b5f80fd5b905035906101b08261018f565b565b90565b6101be816101b2565b036101c557565b5f80fd5b905035906101d6826101b5565b565b5f80fd5b5f80fd5b67ffffffffffffffff81116101fe576101fa602091610118565b0190565b610122565b90825f939282370152565b9092919261022361021e826101e0565b61015f565b9381855260208501908284011161023f5761023d92610203565b565b6101dc565b9080601f830112156102625781602061025f9335910161020e565b90565b6101d8565b91909160e0818403126103135761027e60e061015f565b9261028b815f84016101a3565b5f85015261029c81602084016101c9565b60208501526102ae81604084016101a3565b60408501526102c081606084016101c9565b60608501526102d281608084016101c9565b60808501526102e48160a084016101c9565b60a085015260c082013567ffffffffffffffff811161030e576103079201610244565b60c0830152565b610174565b610114565b90602082820312610348575f82013567ffffffffffffffff8111610343576103409201610267565b90565b610110565b61010c565b610356906101b2565b9052565b919061036d905f6020850194019061034d565b565b3461039f5761039b61038a610385366004610318565b610c78565b610392610102565b9182918261035a565b0390f35b610108565b5f9103126103ae57565b61010c565b7387870bca3f3fd6335c3f4ce8392d69350b4fa4e290565b90565b6103e26103dd6103e792610178565b6103cb565b610178565b90565b6103f3906103ce565b90565b6103ff906103ea565b90565b61041261040d6103b3565b6103f6565b90565b61041d610402565b90565b610429906103ce565b90565b61043590610420565b90565b6104419061042c565b9052565b9190610458905f60208501940190610438565b565b3461048a5761046a3660046103a4565b610486610475610415565b61047d610102565b91829182610445565b0390f35b610108565b91906040838203126104b757806104ab6104b4925f86016101a3565b936020016101a3565b90565b61010c565b346104ed576104e96104d86104d236600461048f565b90611225565b6104e0610102565b9182918261035a565b0390f35b610108565b91909160e08184031261059e5761050960e061015f565b92610516815f84016101a3565b5f85015261052781602084016101c9565b602085015261053981604084016101c9565b604085015261054b81606084016101a3565b606085015261055d81608084016101c9565b608085015261056f8160a084016101c9565b60a085015260c082013567ffffffffffffffff8111610599576105929201610244565b60c0830152565b610174565b610114565b906020828203126105d3575f82013567ffffffffffffffff81116105ce576105cb92016104f2565b90565b610110565b61010c565b60409061060161060894969593966105f760608401985f85019061034d565b602083019061034d565b019061034d565b565b3461063d576106396106256106203660046105a3565b61139e565b610630939193610102565b938493846105d8565b0390f35b610108565b346106735761066f61065e61065836600461048f565b906119c0565b610666610102565b9182918261035a565b0390f35b610108565b90916060828403126106ad576106aa610693845f85016101a3565b936106a181602086016101c9565b936040016101a3565b90565b61010c565b346106e3576106df6106ce6106c8366004610678565b91611b4b565b6106d6610102565b9182918261035a565b0390f35b610108565b34610719576107156107046106fe366004610678565b91611c14565b61070c610102565b9182918261035a565b0390f35b610108565b5f0190565b346107525761073c610736366004610678565b91611d2e565b610744610102565b8061074e8161071e565b0390f35b610108565b906020828203126107705761076d915f016101a3565b90565b61010c565b61077e90610183565b9052565b9190610795905f60208501940190610775565b565b346107c7576107c36107b26107ad366004610757565b611dcc565b6107ba610102565b91829182610782565b0390f35b610108565b346107fb576107e56107df366004610678565b91611ea9565b6107ed610102565b806107f78161071e565b0390f35b610108565b346108305761082c61081b610816366004610757565b611f3c565b610823610102565b91829182610782565b0390f35b610108565b9160c0838303126108ab5761084c825f85016101a3565b9261085a83602083016101a3565b9261086881604084016101c9565b9261087682606085016101c9565b9261088483608083016101a3565b9260a082013567ffffffffffffffff81116108a6576108a39201610244565b90565b610110565b61010c565b346108e7576108e36108d26108c6366004610835565b94939093929192612150565b6108da610102565b9182918261035a565b0390f35b610108565b7368b3465833fb72a70ecdf485e0e4c7bd8665fc4590565b61090d906103ce565b90565b61091990610904565b90565b61092c6109276108ec565b610910565b90565b61093761091c565b90565b61094390610420565b90565b61094f9061093a565b9052565b9190610966905f60208501940190610946565b565b34610998576109783660046103a4565b61099461098361092f565b61098b610102565b91829182610953565b0390f35b610108565b346109cd576109c96109b86109b3366004610757565b612280565b6109c0610102565b9182918261035a565b0390f35b610108565b5f80fd5b5f90565b6109e490516101b2565b90565b90565b6109fe6109f9610a03926109e7565b6103cb565b6101b2565b90565b60209181520190565b5f7f68656c746820666163746f720000000000000000000000000000000000000000910152565b610a43600c602092610a06565b610a4c81610a0f565b0190565b610a659060208101905f818303910152610a36565b90565b15610a6f57565b610a77610102565b62461bcd60e51b815280610a8d60048201610a50565b0390fd5b610a9b9051610183565b90565b610aa7906103ce565b90565b610ab390610a9e565b90565b610abf90610420565b90565b610acb90610420565b90565b5f80fd5b60e01b90565b151590565b610ae681610ad8565b03610aed57565b5f80fd5b90505190610afe82610add565b565b90602082820312610b1957610b16915f01610af1565b90565b61010c565b604090610b47610b4e9496959396610b3d60608401985f850190610775565b6020830190610775565b019061034d565b565b610b58610102565b3d5f823e3d90fd5b916020610b81929493610b7a60408201965f830190610775565b019061034d565b565b90505190610b90826101b5565b565b909160c082840312610bf157610baa835f8401610b83565b92610bb88160208501610b83565b92610bc68260408301610b83565b92610bee610bd78460608501610b83565b93610be58160808601610b83565b9360a001610b83565b90565b61010c565b5f7f6d696e2068656c746820666163746f7200000000000000000000000000000000910152565b610c2a6010602092610a06565b610c3381610bf6565b0190565b610c4c9060208101905f818303910152610c1d565b90565b15610c5657565b610c5e610102565b62461bcd60e51b815280610c7460048201610c37565b0390fd5b610c806109d6565b50610cb0610c90608083016109da565b610caa610ca4670de0b6b3a76400006109ea565b916101b2565b11610a68565b610ccb610cc6610cc15f8401610a91565b610aaa565b610ab6565b60206323b872dd913390610d055f610ce230610ac2565b95610d10610cf1878a016109da565b610cf9610102565b98899788968795610ad2565b855260048501610b1e565b03925af18015610fdf57610fb3575b50610d3b610d36610d315f8401610a91565b610aaa565b610ab6565b602063095ea7b391610d53610d4e610402565b61042c565b90610d7b5f610d638588016109da565b95610d86610d6f610102565b97889687958694610ad2565b845260048401610b60565b03925af18015610fae57610f82575b50610db7610da45f8301610a91565b610db0602084016109da565b3391611ea9565b610dd9610dc660408301610a91565b610dd2606084016109da565b3391611d2e565b610e1860c0610dee610de9610402565b61042c565b63bf92857c90610e0d3392610e01610102565b95869485938493610ad2565b835260048301610782565b03915afa8015610f7d57610e5c915f808080808096945050505050610f4b575b50610e56610e50610e4b608086016109da565b6101b2565b916101b2565b11610c4f565b610e78610e73610e6e60408401610a91565b610aaa565b610ab6565b90602063095ea7b392610e91610e8c61091c565b61093a565b90610eba5f610ea2606087016109da565b96610ec5610eae610102565b98899687958694610ad2565b845260048401610b60565b03925af1918215610f4657610f1792610f1a575b50610ee660408201610a91565b90610ef25f8201610a91565b610efe606083016109da565b610f0a60a084016109da565b9160c03394015194612150565b90565b610f3a9060203d8111610f3f575b610f328183610136565b810190610b00565b610ed9565b503d610f28565b610b50565b610f6c915060c03d8111610f76575b610f648183610136565b810190610b92565b9450505050610e38565b503d610f5a565b610b50565b610fa29060203d8111610fa7575b610f9a8183610136565b810190610b00565b610d95565b503d610f90565b610b50565b610fd39060203d8111610fd8575b610fcb8183610136565b810190610b00565b610d1f565b503d610fc1565b610b50565b919060208382031261100c5761100690610ffe602061015f565b935f01610b83565b5f830152565b610114565b6fffffffffffffffffffffffffffffffff1690565b61102f81611011565b0361103657565b5f80fd5b9050519061104782611026565b565b64ffffffffff1690565b61105c81611049565b0361106357565b5f80fd5b9050519061107482611053565b565b61ffff1690565b61108681611076565b0361108d57565b5f80fd5b9050519061109e8261107d565b565b905051906110ad8261018f565b565b91906101e0838203126111e3576111db906110cb6101e061015f565b936110d8825f8301610fe4565b5f8601526110e9826020830161103a565b60208601526110fb826040830161103a565b604086015261110d826060830161103a565b606086015261111f826080830161103a565b60808601526111318260a0830161103a565b60a08601526111438260c08301611067565b60c08601526111558260e08301611091565b60e08601526111688261010083016110a0565b61010086015261117c8261012083016110a0565b6101208601526111908261014083016110a0565b6101408601526111a48261016083016110a0565b6101608601526111b882610180830161103a565b6101808601526111cc826101a0830161103a565b6101a08601526101c00161103a565b6101c0830152565b610114565b906101e082820312611202576111ff915f016110af565b90565b61010c565b906020828203126112205761121d915f01610b83565b90565b61010c565b6101e061126c916112346109d6565b50611245611240610402565b61042c565b6112616335ea6a75611255610102565b95869485938493610ad2565b835260048301610782565b03915afa918215611341576112a261129d6112986101006112c9966020965f91611312575b5001610a91565b610aaa565b610ab6565b6112be6370a082316112b2610102565b95869485938493610ad2565b835260048301610782565b03915afa90811561130d575f916112df575b5090565b611300915060203d8111611306575b6112f88183610136565b810190611207565b5f6112db565b503d6112ee565b610b50565b61133491506101e03d811161133a575b61132c8183610136565b8101906111e8565b5f611291565b503d611322565b610b50565b634e487b7160e01b5f52601160045260245ffd5b61136961136f919392936101b2565b926101b2565b820391821161137a57565b611346565b90565b61139661139161139b9261137f565b6103cb565b6101b2565b90565b906113a76109d6565b506113b06109d6565b506113b96109d6565b506113d56113d06113cb5f8501610a91565b610aaa565b610ab6565b60206323b872dd91339061140f5f6113ec30610ac2565b9561141a6113fb878b016109da565b611403610102565b98899788968795610ad2565b855260048501610b1e565b03925af180156119bb5761198f575b5061144561144061143b5f8501610a91565b610aaa565b610ab6565b602063095ea7b39161145d61145861091c565b61093a565b906114855f61146d8589016109da565b95611490611479610102565b97889687958694610ad2565b845260048401610b60565b03925af1801561198a5761195e575b506114e86114ae5f8401610a91565b6114ba60608501610a91565b6114c6602086016109da565b6114d260a087016109da565b906114dc30610ac2565b9260c088015194612150565b906115146115026114fb60608601610a91565b33906119c0565b61150e608086016109da565b9061231e565b61151c6109d6565b928161153061152a836101b2565b916101b2565b116118a6575b5061155361154e61154960608701610a91565b610aaa565b610ab6565b90602063095ea7b39261156c611567610402565b61042c565b9061158b5f80199661159661157f610102565b98899687958694610ad2565b845260048401610b60565b03925af19182156118a1576115bf92611875575b506115b760608601610a91565b903391611b4b565b506115d36115ce5f8501610a91565b611dcc565b6115e46115df82610aaa565b610ab6565b6323b872dd903390611635602061160b61160661160030610ac2565b97610aaa565b610ab6565b6370a082319061162a339261161e610102565b95869485938493610ad2565b835260048301610782565b03915afa9081156118705760209461168961166a61167e948c5f95869261183a575b50604061166491016109da565b9061231e565b611672610102565b98899788968795610ad2565b855260048501610b1e565b03925af1801561183557611809575b506116ba6116a75f8501610a91565b6116b3604086016109da565b3391611c14565b61170d60206116db6116d66116d160608901610a91565b610aaa565b610ab6565b6370a08231906117026116ed30610ac2565b926116f6610102565b95869485938493610ad2565b835260048301610782565b03915afa908115611804575f916117d6575b50938461173461172e5f611382565b916101b2565b11611743575b50919291929190565b61175a611755606061175f9301610a91565b610aaa565b610ab6565b602063a9059cbb9133906117865f899561179161177a610102565b97889687958694610ad2565b845260048401610b60565b03925af180156117d1576117a5575b61173a565b6117c59060203d81116117ca575b6117bd8183610136565b810190610b00565b6117a0565b503d6117b3565b610b50565b6117f7915060203d81116117fd575b6117ef8183610136565b810190611207565b5f61171f565b503d6117e5565b610b50565b6118299060203d811161182e575b6118218183610136565b810190610b00565b611698565b503d611817565b610b50565b6116649192506118616040918c3d8111611869575b6118598183610136565b810190611207565b929150611657565b503d61184f565b610b50565b6118959060203d811161189a575b61188d8183610136565b810190610b00565b6115aa565b503d611883565b610b50565b9092506118c56118c06118bb60608701610a91565b610aaa565b610ab6565b9060206323b872dd9233906119005f6118dd30610ac2565b9661190b6118ec8b899061135a565b6118f4610102565b998a9788968795610ad2565b855260048501610b1e565b03925af1918215611959576119269261192d575b508361135a565b915f611536565b61194d9060203d8111611952575b6119458183610136565b810190610b00565b61191f565b503d61193b565b610b50565b61197e9060203d8111611983575b6119768183610136565b810190610b00565b61149f565b503d61196c565b610b50565b6119af9060203d81116119b4575b6119a78183610136565b810190610b00565b611429565b503d61199d565b610b50565b6101e0611a07916119cf6109d6565b506119e06119db610402565b61042c565b6119fc6335ea6a756119f0610102565b95869485938493610ad2565b835260048301610782565b03915afa918215611adc57611a3d611a38611a33610140611a64966020965f91611aad575b5001610a91565b610aaa565b610ab6565b611a596370a08231611a4d610102565b95869485938493610ad2565b835260048301610782565b03915afa908115611aa8575f91611a7a575b5090565b611a9b915060203d8111611aa1575b611a938183610136565b810190611207565b5f611a76565b503d611a89565b610b50565b611acf91506101e03d8111611ad5575b611ac78183610136565b8101906111e8565b5f611a2c565b503d611abd565b610b50565b90565b611af8611af3611afd92611ae1565b6103cb565b6101b2565b90565b611b0990611ae4565b9052565b611b42611b4994611b38606094989795611b2e608086019a5f870190610775565b602085019061034d565b6040830190611b00565b0190610775565b565b90602091611b576109d6565b50611b8e5f611b6c611b67610402565b61042c565b92611b9963573ade819195976002611b82610102565b998a9889978896610ad2565b865260048601611b0d565b03925af1908115611bdd575f91611baf575b5090565b611bd0915060203d8111611bd6575b611bc88183610136565b810190611207565b5f611bab565b503d611bbe565b610b50565b604090611c0b611c129496959396611c0160608401985f850190610775565b602083019061034d565b0190610775565b565b90602091611c206109d6565b50611c555f611c35611c30610402565b61042c565b92611c606369328dec919597611c49610102565b98899788968795610ad2565b855260048501611be2565b03925af1908115611ca4575f91611c76575b5090565b611c97915060203d8111611c9d575b611c8f8183610136565b810190611207565b5f611c72565b503d611c85565b610b50565b5f910312611cb357565b61010c565b611ccc611cc7611cd19261137f565b6103cb565b611076565b90565b611cdd90611cb8565b9052565b90959492611d2c94611d1b611d2592611d11608096611d0760a088019c5f890190610775565b602087019061034d565b6040850190611b00565b6060830190611cd4565b0190610775565b565b9190611d40611d3b610402565b61042c565b63a415bcad9391936002935f9091833b15611dc357611d80611d75935f97938894611d69610102565b9a8b998a988997610ad2565b875260048701611ce1565b03925af18015611dbe57611d92575b50565b611db1905f3d8111611db7575b611da98183610136565b810190611ca9565b5f611d8f565b503d611d9f565b610b50565b610ace565b5f90565b6101e0611e1391611ddb611dc8565b50611dec611de7610402565b61042c565b611e086335ea6a75611dfc610102565b95869485938493610ad2565b835260048301610782565b03915afa908115611e6657611e3491610100915f91611e37575b5001610a91565b90565b611e5991506101e03d8111611e5f575b611e518183610136565b8101906111e8565b5f611e2d565b503d611e47565b610b50565b611ea0611ea794611e96606094989795611e8c608086019a5f870190610775565b602085019061034d565b6040830190610775565b0190611cd4565b565b90611eba611eb5610402565b61042c565b63617ba0379291935f823b15611f37575f94611ef48692611ee994611edd610102565b998a9889978896610ad2565b865260048601611e6b565b03925af18015611f3257611f06575b50565b611f25905f3d8111611f2b575b611f1d8183610136565b810190611ca9565b5f611f03565b503d611f13565b610b50565b610ace565b6101e0611f8391611f4b611dc8565b50611f5c611f57610402565b61042c565b611f786335ea6a75611f6c610102565b95869485938493610ad2565b835260048301610782565b03915afa908115611fd657611fa491610140915f91611fa7575b5001610a91565b90565b611fc991506101e03d8111611fcf575b611fc18183610136565b8101906111e8565b5f611f9d565b503d611fb7565b610b50565b62ffffff1690565b611fec81611fdb565b03611ff357565b5f80fd5b9050519061200482611fe3565b565b9060208282031261201f5761201c915f01611ff7565b90565b61010c565b5190565b61203260e061015f565b90565b9061203f90610183565b9052565b9061204d90611fdb565b9052565b9061205b906101b2565b9052565b61207361206e6120789261137f565b6103cb565b610178565b90565b9061208590610178565b9052565b61209290610183565b9052565b61209f90611fdb565b9052565b6120ac906101b2565b9052565b6120b990610178565b9052565b9060c080612139936120d55f8201515f860190612089565b6120e760208201516020860190612089565b6120f960408201516040860190612096565b61210b60608201516060860190612089565b61211d608082015160808601906120a3565b61212f60a082015160a08601906120a3565b01519101906120b0565b565b919061214e905f60e085019401906120bd565b565b929193909461215d6109d6565b5061216781612024565b6020820101906020019061217a91612006565b9161218361091c565b61218c9061093a565b946304e45aaf949693929091925f946121a3612028565b985f8a01906121b191612035565b60208901906121bf91612035565b60408801906121cd91612043565b60608701906121db91612035565b60808601906121e991612051565b60a08501906121f791612051565b6122009061205f565b60c084019061220e9161207b565b612216610102565b80936122228293610ad2565b825260048201906122329161213b565b03815a6020945f91f190811561227b575f9161224d575b5090565b61226e915060203d8111612274575b6122668183610136565b810190611207565b5f612249565b503d61225c565b610b50565b60c06122c69161228e6109d6565b5061229f61229a610402565b61042c565b6122bb63bf92857c6122af610102565b95869485938493610ad2565b835260048301610782565b03915afa908115612319575f8080808080969450505050506122e7575b5090565b612308915060c03d8111612312575b6123008183610136565b810190610b92565b94505050506122e3565b503d6122f6565b610b50565b906123276109d6565b508161233b612335836101b2565b916101b2565b11155f1461234857505b90565b905061234556fea2646970667358221220978abea351a41c93457f9c75a04e2db41798808a1ac8bbc406bd507b1ea8837464736f6c634300081c0033","linkReferences":{}},"methodIdentifiers":{"borrow(address,uint256,address)":"6c665a55","close((address,uint256,uint256,address,uint256,uint256,bytes))":"20cd4215","getATokenAddress(address)":"711cc005","getATokenBalance(address,address)":"203660df","getHealthFactor(address)":"fe6bcd7c","getVariableDebt(address,address)":"2919192d","getVariableDebtTokenAddress(address)":"94bf6fa7","open((address,uint256,address,uint256,uint256,uint256,bytes))":"0130de75","pool()":"16f0115b","repay(address,uint256,address)":"5ceae9c4","router()":"f887ea40","supply(address,uint256,address)":"8b2a4df5","swap(address,address,uint256,uint256,address,bytes)":"b69cbf9f","withdraw(address,uint256,address)":"69328dec"},"id":25}