{"abi":[{"type":"function","name":"borrow","inputs":[{"name":"token","type":"address","internalType":"address"},{"name":"amount","type":"uint256","internalType":"uint256"},{"name":"onBehalfOf","type":"address","internalType":"address"}],"outputs":[],"stateMutability":"nonpayable"},{"type":"function","name":"close","inputs":[{"name":"params","type":"tuple","internalType":"struct LongShort.CloseParams","components":[{"name":"collateralToken","type":"address","internalType":"address"},{"name":"collateralAmount","type":"uint256","internalType":"uint256"},{"name":"maxCollateralToWithdraw","type":"uint256","internalType":"uint256"},{"name":"borrowToken","type":"address","internalType":"address"},{"name":"maxDebtToRepay","type":"uint256","internalType":"uint256"},{"name":"minSwapAmountOut","type":"uint256","internalType":"uint256"},{"name":"swapData","type":"bytes","internalType":"bytes"}]}],"outputs":[{"name":"collateralWithdrawn","type":"uint256","internalType":"uint256"},{"name":"debtRepaidFromMsgSender","type":"uint256","internalType":"uint256"},{"name":"borrowedLeftover","type":"uint256","internalType":"uint256"}],"stateMutability":"nonpayable"},{"type":"function","name":"getATokenAddress","inputs":[{"name":"token","type":"address","internalType":"address"}],"outputs":[{"name":"","type":"address","internalType":"address"}],"stateMutability":"view"},{"type":"function","name":"getATokenBalance","inputs":[{"name":"token","type":"address","internalType":"address"},{"name":"user","type":"address","internalType":"address"}],"outputs":[{"name":"","type":"uint256","internalType":"uint256"}],"stateMutability":"view"},{"type":"function","name":"getHealthFactor","inputs":[{"name":"user","type":"address","internalType":"address"}],"outputs":[{"name":"","type":"uint256","internalType":"uint256"}],"stateMutability":"view"},{"type":"function","name":"getVariableDebt","inputs":[{"name":"token","type":"address","internalType":"address"},{"name":"user","type":"address","internalType":"address"}],"outputs":[{"name":"","type":"uint256","internalType":"uint256"}],"stateMutability":"view"},{"type":"function","name":"getVariableDebtTokenAddress","inputs":[{"name":"token","type":"address","internalType":"address"}],"outputs":[{"name":"","type":"address","internalType":"address"}],"stateMutability":"view"},{"type":"function","name":"open","inputs":[{"name":"params","type":"tuple","internalType":"struct LongShort.OpenParams","components":[{"name":"collateralToken","type":"address","internalType":"address"},{"name":"collateralAmount","type":"uint256","internalType":"uint256"},{"name":"borrowToken","type":"address","internalType":"address"},{"name":"borrowAmount","type":"uint256","internalType":"uint256"},{"name":"minHealthFactor","type":"uint256","internalType":"uint256"},{"name":"minSwapAmountOut","type":"uint256","internalType":"uint256"},{"name":"swapData","type":"bytes","internalType":"bytes"}]}],"outputs":[{"name":"collateralAmountOut","type":"uint256","internalType":"uint256"}],"stateMutability":"nonpayable"},{"type":"function","name":"pool","inputs":[],"outputs":[{"name":"","type":"address","internalType":"contract IPool"}],"stateMutability":"view"},{"type":"function","name":"repay","inputs":[{"name":"token","type":"address","internalType":"address"},{"name":"amount","type":"uint256","internalType":"uint256"},{"name":"onBehalfOf","type":"address","internalType":"address"}],"outputs":[{"name":"repaid","type":"uint256","internalType":"uint256"}],"stateMutability":"nonpayable"},{"type":"function","name":"router","inputs":[],"outputs":[{"name":"","type":"address","internalType":"contract ISwapRouter"}],"stateMutability":"view"},{"type":"function","name":"supply","inputs":[{"name":"token","type":"address","internalType":"address"},{"name":"amount","type":"uint256","internalType":"uint256"},{"name":"onBehalfOf","type":"address","internalType":"address"}],"outputs":[],"stateMutability":"nonpayable"},{"type":"function","name":"swap","inputs":[{"name":"tokenIn","type":"address","internalType":"address"},{"name":"tokenOut","type":"address","internalType":"address"},{"name":"amountIn","type":"uint256","internalType":"uint256"},{"name":"amountOutMin","type":"uint256","internalType":"uint256"},{"name":"receiver","type":"address","internalType":"address"},{"name":"data","type":"bytes","internalType":"bytes"}],"outputs":[{"name":"amountOut","type":"uint256","internalType":"uint256"}],"stateMutability":"nonpayable"},{"type":"function","name":"withdraw","inputs":[{"name":"token","type":"address","internalType":"address"},{"name":"amount","type":"uint256","internalType":"uint256"},{"name":"to","type":"address","internalType":"address"}],"outputs":[{"name":"withdrawn","type":"uint256","internalType":"uint256"}],"stateMutability":"nonpayable"}],"bytecode":{"object":"0x608060405234601c57600e6020565b6122ea61002b82396122ea90f35b6026565b60405190565b5f80fdfe60806040526004361015610013575b6109d2565b61001d5f356100fc565b80630130de75146100f757806316f0115b146100f2578063203660df146100ed57806320cd4215146100e85780632919192d146100e35780635ceae9c4146100de57806369328dec146100d95780636c665a55146100d4578063711cc005146100cf5780638b2a4df5146100ca57806394bf6fa7146100c5578063b69cbf9f146100c0578063f887ea40146100bb5763fe6bcd7c0361000e5761099d565b610968565b6108b0565b610800565b6107cc565b610797565b610723565b6106e8565b6106b2565b610642565b61060a565b6104bc565b61045a565b61036f565b60e01c90565b60405190565b5f80fd5b5f80fd5b5f80fd5b5f80fd5b601f801991011690565b634e487b7160e01b5f52604160045260245ffd5b9061014090610118565b810190811067ffffffffffffffff82111761015a57604052565b610122565b9061017261016b610102565b9283610136565b565b5f80fd5b60018060a01b031690565b61018c90610178565b90565b61019881610183565b0361019f57565b5f80fd5b905035906101b08261018f565b565b90565b6101be816101b2565b036101c557565b5f80fd5b905035906101d6826101b5565b565b5f80fd5b5f80fd5b67ffffffffffffffff81116101fe576101fa602091610118565b0190565b610122565b90825f939282370152565b9092919261022361021e826101e0565b61015f565b9381855260208501908284011161023f5761023d92610203565b565b6101dc565b9080601f830112156102625781602061025f9335910161020e565b90565b6101d8565b91909160e0818403126103135761027e60e061015f565b9261028b815f84016101a3565b5f85015261029c81602084016101c9565b60208501526102ae81604084016101a3565b60408501526102c081606084016101c9565b60608501526102d281608084016101c9565b60808501526102e48160a084016101c9565b60a085015260c082013567ffffffffffffffff811161030e576103079201610244565b60c0830152565b610174565b610114565b90602082820312610348575f82013567ffffffffffffffff8111610343576103409201610267565b90565b610110565b61010c565b610356906101b2565b9052565b919061036d905f6020850194019061034d565b565b3461039f5761039b61038a610385366004610318565b610c05565b610392610102565b9182918261035a565b0390f35b610108565b5f9103126103ae57565b61010c565b7387870bca3f3fd6335c3f4ce8392d69350b4fa4e290565b90565b6103e26103dd6103e792610178565b6103cb565b610178565b90565b6103f3906103ce565b90565b6103ff906103ea565b90565b61041261040d6103b3565b6103f6565b90565b61041d610402565b90565b610429906103ce565b90565b61043590610420565b90565b6104419061042c565b9052565b9190610458905f60208501940190610438565b565b3461048a5761046a3660046103a4565b610486610475610415565b61047d610102565b91829182610445565b0390f35b610108565b91906040838203126104b757806104ab6104b4925f86016101a3565b936020016101a3565b90565b61010c565b346104ed576104e96104d86104d236600461048f565b90611137565b6104e0610102565b9182918261035a565b0390f35b610108565b91909160e08184031261059e5761050960e061015f565b92610516815f84016101a3565b5f85015261052781602084016101c9565b602085015261053981604084016101c9565b604085015261054b81606084016101a3565b606085015261055d81608084016101c9565b608085015261056f8160a084016101c9565b60a085015260c082013567ffffffffffffffff8111610599576105929201610244565b60c0830152565b610174565b610114565b906020828203126105d3575f82013567ffffffffffffffff81116105ce576105cb92016104f2565b90565b610110565b61010c565b60409061060161060894969593966105f760608401985f85019061034d565b602083019061034d565b019061034d565b565b3461063d576106396106256106203660046105a3565b6112b0565b610630939193610102565b938493846105d8565b0390f35b610108565b346106735761066f61065e61065836600461048f565b906118c1565b610666610102565b9182918261035a565b0390f35b610108565b90916060828403126106ad576106aa610693845f85016101a3565b936106a181602086016101c9565b936040016101a3565b90565b61010c565b346106e3576106df6106ce6106c8366004610678565b91611a4c565b6106d6610102565b9182918261035a565b0390f35b610108565b34610719576107156107046106fe366004610678565b91611b15565b61070c610102565b9182918261035a565b0390f35b610108565b5f0190565b346107525761073c610736366004610678565b91611c2f565b610744610102565b8061074e8161071e565b0390f35b610108565b906020828203126107705761076d915f016101a3565b90565b61010c565b61077e90610183565b9052565b9190610795905f60208501940190610775565b565b346107c7576107c36107b26107ad366004610757565b611ccd565b6107ba610102565b91829182610782565b0390f35b610108565b346107fb576107e56107df366004610678565b91611daa565b6107ed610102565b806107f78161071e565b0390f35b610108565b346108305761082c61081b610816366004610757565b611e3d565b610823610102565b91829182610782565b0390f35b610108565b9160c0838303126108ab5761084c825f85016101a3565b9261085a83602083016101a3565b9261086881604084016101c9565b9261087682606085016101c9565b9261088483608083016101a3565b9260a082013567ffffffffffffffff81116108a6576108a39201610244565b90565b610110565b61010c565b346108e7576108e36108d26108c6366004610835565b94939093929192612051565b6108da610102565b9182918261035a565b0390f35b610108565b7368b3465833fb72a70ecdf485e0e4c7bd8665fc4590565b61090d906103ce565b90565b61091990610904565b90565b61092c6109276108ec565b610910565b90565b61093761091c565b90565b61094390610420565b90565b61094f9061093a565b9052565b9190610966905f60208501940190610946565b565b34610998576109783660046103a4565b61099461098361092f565b61098b610102565b91829182610953565b0390f35b610108565b346109cd576109c96109b86109b3366004610757565b6121e5565b6109c0610102565b9182918261035a565b0390f35b610108565b5f80fd5b5f90565b6109e490516101b2565b90565b90565b6109fe6109f9610a03926109e7565b6103cb565b6101b2565b90565b60209181520190565b5f7f6d696e206865616c746820666163746f72203c3d203100000000000000000000910152565b610a436016602092610a06565b610a4c81610a0f565b0190565b610a659060208101905f818303910152610a36565b90565b15610a6f57565b610a77610102565b62461bcd60e51b815280610a8d60048201610a50565b0390fd5b610a9b9051610183565b90565b610aa7906103ce565b90565b610ab390610a9e565b90565b610abf90610420565b90565b610acb90610420565b90565b5f80fd5b60e01b90565b151590565b610ae681610ad8565b03610aed57565b5f80fd5b90505190610afe82610add565b565b90602082820312610b1957610b16915f01610af1565b90565b61010c565b604090610b47610b4e9496959396610b3d60608401985f850190610775565b6020830190610775565b019061034d565b565b610b58610102565b3d5f823e3d90fd5b916020610b81929493610b7a60408201965f830190610775565b019061034d565b565b5f7f6865616c746820666163746f72203c206d696e00000000000000000000000000910152565b610bb76013602092610a06565b610bc081610b83565b0190565b610bd99060208101905f818303910152610baa565b90565b15610be357565b610beb610102565b62461bcd60e51b815280610c0160048201610bc4565b0390fd5b610c0d6109d6565b50610c3d610c1d608083016109da565b610c37610c31670de0b6b3a76400006109ea565b916101b2565b11610a68565b610c58610c53610c4e5f8401610a91565b610aaa565b610ab6565b60206323b872dd913390610c925f610c6f30610ac2565b95610c9d610c7e878a016109da565b610c86610102565b98899788968795610ad2565b855260048501610b1e565b03925af18015610ee257610eb6575b50610cc8610cc3610cbe5f8401610a91565b610aaa565b610ab6565b602063095ea7b391610ce0610cdb610402565b61042c565b90610d085f610cf08588016109da565b95610d13610cfc610102565b97889687958694610ad2565b845260048401610b60565b03925af18015610eb157610e85575b50610d44610d315f8301610a91565b610d3d602084016109da565b3391611daa565b610d66610d5360408301610a91565b610d5f606084016109da565b3391611c2f565b610d96610d72336121e5565b610d8f610d89610d84608086016109da565b6101b2565b916101b2565b1015610bdc565b610db2610dad610da860408401610a91565b610aaa565b610ab6565b90602063095ea7b392610dcb610dc661091c565b61093a565b90610df45f610ddc606087016109da565b96610dff610de8610102565b98899687958694610ad2565b845260048401610b60565b03925af1918215610e8057610e5192610e54575b50610e2060408201610a91565b90610e2c5f8201610a91565b610e38606083016109da565b610e4460a084016109da565b9160c03394015194612051565b90565b610e749060203d8111610e79575b610e6c8183610136565b810190610b00565b610e13565b503d610e62565b610b50565b610ea59060203d8111610eaa575b610e9d8183610136565b810190610b00565b610d22565b503d610e93565b610b50565b610ed69060203d8111610edb575b610ece8183610136565b810190610b00565b610cac565b503d610ec4565b610b50565b90505190610ef4826101b5565b565b9190602083820312610f1e57610f1890610f10602061015f565b935f01610ee7565b5f830152565b610114565b6fffffffffffffffffffffffffffffffff1690565b610f4181610f23565b03610f4857565b5f80fd5b90505190610f5982610f38565b565b64ffffffffff1690565b610f6e81610f5b565b03610f7557565b5f80fd5b90505190610f8682610f65565b565b61ffff1690565b610f9881610f88565b03610f9f57565b5f80fd5b90505190610fb082610f8f565b565b90505190610fbf8261018f565b565b91906101e0838203126110f5576110ed90610fdd6101e061015f565b93610fea825f8301610ef6565b5f860152610ffb8260208301610f4c565b602086015261100d8260408301610f4c565b604086015261101f8260608301610f4c565b60608601526110318260808301610f4c565b60808601526110438260a08301610f4c565b60a08601526110558260c08301610f79565b60c08601526110678260e08301610fa3565b60e086015261107a826101008301610fb2565b61010086015261108e826101208301610fb2565b6101208601526110a2826101408301610fb2565b6101408601526110b6826101608301610fb2565b6101608601526110ca826101808301610f4c565b6101808601526110de826101a08301610f4c565b6101a08601526101c001610f4c565b6101c0830152565b610114565b906101e08282031261111457611111915f01610fc1565b90565b61010c565b906020828203126111325761112f915f01610ee7565b90565b61010c565b6101e061117e916111466109d6565b50611157611152610402565b61042c565b6111736335ea6a75611167610102565b95869485938493610ad2565b835260048301610782565b03915afa918215611253576111b46111af6111aa6101006111db966020965f91611224575b5001610a91565b610aaa565b610ab6565b6111d06370a082316111c4610102565b95869485938493610ad2565b835260048301610782565b03915afa90811561121f575f916111f1575b5090565b611212915060203d8111611218575b61120a8183610136565b810190611119565b5f6111ed565b503d611200565b610b50565b61124691506101e03d811161124c575b61123e8183610136565b8101906110fa565b5f6111a3565b503d611234565b610b50565b90565b61126f61126a61127492611258565b6103cb565b6101b2565b90565b634e487b7160e01b5f52601160045260245ffd5b61129a6112a0919392936101b2565b926101b2565b82039182116112ab57565b611277565b906112b96109d6565b506112c26109d6565b506112cb6109d6565b506112e76112e26112dd5f8501610a91565b610aaa565b610ab6565b60206323b872dd9133906113215f6112fe30610ac2565b9561132c61130d878b016109da565b611315610102565b98899788968795610ad2565b855260048501610b1e565b03925af180156118bc57611890575b5061135761135261134d5f8501610a91565b610aaa565b610ab6565b602063095ea7b39161136f61136a61091c565b61093a565b906113975f61137f8589016109da565b956113a261138b610102565b97889687958694610ad2565b845260048401610b60565b03925af1801561188b5761185f575b506113fa6113c05f8401610a91565b6113cc60608501610a91565b6113d8602086016109da565b6113e460a087016109da565b906113ee30610ac2565b9260c088015194612051565b9061142661141461140d60608601610a91565b33906118c1565b611420608086016109da565b90612283565b61144261143d61143860608701610a91565b610aaa565b610ab6565b602063095ea7b39161145a611455610402565b61042c565b906114785f869561148361146c610102565b97889687958694610ad2565b845260048401610b60565b03925af1801561185a5761182e575b5061149c5f61125b565b92816114b06114aa836101b2565b916101b2565b1161177d575b506114cf906114c760608601610a91565b903391611a4c565b506114eb6114e66114e15f8601610a91565b611ccd565b610aaa565b6114f481610ab6565b6323b872dd90339061153d602061151361150d30610ac2565b96610ab6565b6370a08231906115323392611526610102565b95869485938493610ad2565b835260048301610782565b03915afa90811561177857602094611591611572611586948c5f958692611742575b50604061156c91016109da565b90612283565b61157a610102565b98899788968795610ad2565b855260048501610b1e565b03925af1801561173d57611711575b506115c26115af5f8501610a91565b6115bb604086016109da565b3391611b15565b61161560206115e36115de6115d960608901610a91565b610aaa565b610ab6565b6370a082319061160a6115f530610ac2565b926115fe610102565b95869485938493610ad2565b835260048301610782565b03915afa90811561170c575f916116de575b50938461163c6116365f61125b565b916101b2565b1161164b575b50919291929190565b61166261165d60606116679301610a91565b610aaa565b610ab6565b602063a9059cbb91339061168e5f8995611699611682610102565b97889687958694610ad2565b845260048401610b60565b03925af180156116d9576116ad575b611642565b6116cd9060203d81116116d2575b6116c58183610136565b810190610b00565b6116a8565b503d6116bb565b610b50565b6116ff915060203d8111611705575b6116f78183610136565b810190611119565b5f611627565b503d6116ed565b610b50565b6117319060203d8111611736575b6117298183610136565b810190610b00565b6115a0565b503d61171f565b610b50565b61156c9192506117696040918c3d8111611771575b6117618183610136565b810190611119565b92915061155f565b503d611757565b610b50565b8161178992945061128b565b916117a66117a161179c60608701610a91565b610aaa565b610ab6565b9060206323b872dd9233906117d75f6117be30610ac2565b966117e28a6117cb610102565b998a9788968795610ad2565b855260048501610b1e565b03925af1918215611829576114cf926117fd575b50906114b6565b61181d9060203d8111611822575b6118158183610136565b810190610b00565b6117f6565b503d61180b565b610b50565b61184e9060203d8111611853575b6118468183610136565b810190610b00565b611492565b503d61183c565b610b50565b61187f9060203d8111611884575b6118778183610136565b810190610b00565b6113b1565b503d61186d565b610b50565b6118b09060203d81116118b5575b6118a88183610136565b810190610b00565b61133b565b503d61189e565b610b50565b6101e0611908916118d06109d6565b506118e16118dc610402565b61042c565b6118fd6335ea6a756118f1610102565b95869485938493610ad2565b835260048301610782565b03915afa9182156119dd5761193e611939611934610140611965966020965f916119ae575b5001610a91565b610aaa565b610ab6565b61195a6370a0823161194e610102565b95869485938493610ad2565b835260048301610782565b03915afa9081156119a9575f9161197b575b5090565b61199c915060203d81116119a2575b6119948183610136565b810190611119565b5f611977565b503d61198a565b610b50565b6119d091506101e03d81116119d6575b6119c88183610136565b8101906110fa565b5f61192d565b503d6119be565b610b50565b90565b6119f96119f46119fe926119e2565b6103cb565b6101b2565b90565b611a0a906119e5565b9052565b611a43611a4a94611a39606094989795611a2f608086019a5f870190610775565b602085019061034d565b6040830190611a01565b0190610775565b565b90602091611a586109d6565b50611a8f5f611a6d611a68610402565b61042c565b92611a9a63573ade819195976002611a83610102565b998a9889978896610ad2565b865260048601611a0e565b03925af1908115611ade575f91611ab0575b5090565b611ad1915060203d8111611ad7575b611ac98183610136565b810190611119565b5f611aac565b503d611abf565b610b50565b604090611b0c611b139496959396611b0260608401985f850190610775565b602083019061034d565b0190610775565b565b90602091611b216109d6565b50611b565f611b36611b31610402565b61042c565b92611b616369328dec919597611b4a610102565b98899788968795610ad2565b855260048501611ae3565b03925af1908115611ba5575f91611b77575b5090565b611b98915060203d8111611b9e575b611b908183610136565b810190611119565b5f611b73565b503d611b86565b610b50565b5f910312611bb457565b61010c565b611bcd611bc8611bd292611258565b6103cb565b610f88565b90565b611bde90611bb9565b9052565b90959492611c2d94611c1c611c2692611c12608096611c0860a088019c5f890190610775565b602087019061034d565b6040850190611a01565b6060830190611bd5565b0190610775565b565b9190611c41611c3c610402565b61042c565b63a415bcad9391936002935f9091833b15611cc457611c81611c76935f97938894611c6a610102565b9a8b998a988997610ad2565b875260048701611be2565b03925af18015611cbf57611c93575b50565b611cb2905f3d8111611cb8575b611caa8183610136565b810190611baa565b5f611c90565b503d611ca0565b610b50565b610ace565b5f90565b6101e0611d1491611cdc611cc9565b50611ced611ce8610402565b61042c565b611d096335ea6a75611cfd610102565b95869485938493610ad2565b835260048301610782565b03915afa908115611d6757611d3591610100915f91611d38575b5001610a91565b90565b611d5a91506101e03d8111611d60575b611d528183610136565b8101906110fa565b5f611d2e565b503d611d48565b610b50565b611da1611da894611d97606094989795611d8d608086019a5f870190610775565b602085019061034d565b6040830190610775565b0190611bd5565b565b90611dbb611db6610402565b61042c565b63617ba0379291935f823b15611e38575f94611df58692611dea94611dde610102565b998a9889978896610ad2565b865260048601611d6c565b03925af18015611e3357611e07575b50565b611e26905f3d8111611e2c575b611e1e8183610136565b810190611baa565b5f611e04565b503d611e14565b610b50565b610ace565b6101e0611e8491611e4c611cc9565b50611e5d611e58610402565b61042c565b611e796335ea6a75611e6d610102565b95869485938493610ad2565b835260048301610782565b03915afa908115611ed757611ea591610140915f91611ea8575b5001610a91565b90565b611eca91506101e03d8111611ed0575b611ec28183610136565b8101906110fa565b5f611e9e565b503d611eb8565b610b50565b62ffffff1690565b611eed81611edc565b03611ef457565b5f80fd5b90505190611f0582611ee4565b565b90602082820312611f2057611f1d915f01611ef8565b90565b61010c565b5190565b611f3360e061015f565b90565b90611f4090610183565b9052565b90611f4e90611edc565b9052565b90611f5c906101b2565b9052565b611f74611f6f611f7992611258565b6103cb565b610178565b90565b90611f8690610178565b9052565b611f9390610183565b9052565b611fa090611edc565b9052565b611fad906101b2565b9052565b611fba90610178565b9052565b9060c08061203a93611fd65f8201515f860190611f8a565b611fe860208201516020860190611f8a565b611ffa60408201516040860190611f97565b61200c60608201516060860190611f8a565b61201e60808201516080860190611fa4565b61203060a082015160a0860190611fa4565b0151910190611fb1565b565b919061204f905f60e08501940190611fbe565b565b929193909461205e6109d6565b5061206881611f25565b6020820101906020019061207b91611f07565b9161208461091c565b61208d9061093a565b946304e45aaf949693929091925f946120a4611f29565b985f8a01906120b291611f36565b60208901906120c091611f36565b60408801906120ce91611f44565b60608701906120dc91611f36565b60808601906120ea91611f52565b60a08501906120f891611f52565b61210190611f60565b60c084019061210f91611f7c565b612117610102565b80936121238293610ad2565b825260048201906121339161203c565b03815a6020945f91f190811561217c575f9161214e575b5090565b61216f915060203d8111612175575b6121678183610136565b810190611119565b5f61214a565b503d61215d565b610b50565b909160c0828403126121e057612199835f8401610ee7565b926121a78160208501610ee7565b926121b58260408301610ee7565b926121dd6121c68460608501610ee7565b936121d48160808601610ee7565b9360a001610ee7565b90565b61010c565b60c061222b916121f36109d6565b506122046121ff610402565b61042c565b61222063bf92857c612214610102565b95869485938493610ad2565b835260048301610782565b03915afa90811561227e575f80808080809694505050505061224c575b5090565b61226d915060c03d8111612277575b6122658183610136565b810190612181565b9450505050612248565b503d61225b565b610b50565b9061228c6109d6565b50816122a061229a836101b2565b916101b2565b11155f146122ad57505b90565b90506122aa56fea26469706673582212207507d4fc06855f99b6c832c15f3a6d1f6d29e81c08c2af3bc3f9425de8e5da1a64736f6c634300081c0033","linkReferences":{}},"methodIdentifiers":{"borrow(address,uint256,address)":"6c665a55","close((address,uint256,uint256,address,uint256,uint256,bytes))":"20cd4215","getATokenAddress(address)":"711cc005","getATokenBalance(address,address)":"203660df","getHealthFactor(address)":"fe6bcd7c","getVariableDebt(address,address)":"2919192d","getVariableDebtTokenAddress(address)":"94bf6fa7","open((address,uint256,address,uint256,uint256,uint256,bytes))":"0130de75","pool()":"16f0115b","repay(address,uint256,address)":"5ceae9c4","router()":"f887ea40","supply(address,uint256,address)":"8b2a4df5","swap(address,address,uint256,uint256,address,bytes)":"b69cbf9f","withdraw(address,uint256,address)":"69328dec"},"id":42}