{"abi":[{"type":"function","name":"getSupplyBalance","inputs":[{"name":"token","type":"address","internalType":"address"}],"outputs":[{"name":"","type":"uint256","internalType":"uint256"}],"stateMutability":"view"},{"type":"function","name":"pool","inputs":[],"outputs":[{"name":"","type":"address","internalType":"contract IPool"}],"stateMutability":"view"},{"type":"function","name":"supply","inputs":[{"name":"token","type":"address","internalType":"address"},{"name":"amount","type":"uint256","internalType":"uint256"}],"outputs":[],"stateMutability":"nonpayable"}],"bytecode":{"object":"0x608060405234601c57600e6020565b6109e961002b82396109e990f35b6026565b60405190565b5f80fdfe60806040526004361015610013575b610286565b61001d5f3561004c565b806316f0115b14610047578063f2b9fdb8146100425763f38e266a0361000e57610251565b6101dd565b610121565b60e01c90565b60405190565b5f80fd5b5f80fd5b5f91031261006a57565b61005c565b7387870bca3f3fd6335c3f4ce8392d69350b4fa4e290565b60018060a01b031690565b90565b6100a96100a46100ae92610087565b610092565b610087565b90565b6100ba90610095565b90565b6100c6906100b1565b90565b6100d96100d461006f565b6100bd565b90565b6100e46100c9565b90565b6100f090610095565b90565b6100fc906100e7565b90565b610108906100f3565b9052565b919061011f905f602085019401906100ff565b565b3461015157610131366004610060565b61014d61013c6100dc565b610144610052565b9182918261010c565b0390f35b610058565b61015f90610087565b90565b61016b81610156565b0361017257565b5f80fd5b9050359061018382610162565b565b90565b61019181610185565b0361019857565b5f80fd5b905035906101a982610188565b565b91906040838203126101d357806101c76101d0925f8601610176565b9360200161019c565b90565b61005c565b5f0190565b3461020c576101f66101f03660046101ab565b90610443565b6101fe610052565b80610208816101d8565b0390f35b610058565b9060208282031261022a57610227915f01610176565b90565b61005c565b61023890610185565b9052565b919061024f905f6020850194019061022f565b565b346102815761027d61026c610267366004610211565b610887565b610274610052565b9182918261023c565b0390f35b610058565b5f80fd5b61029390610095565b90565b61029f9061028a565b90565b6102ab906100e7565b90565b6102b7906100e7565b90565b5f80fd5b601f801991011690565b634e487b7160e01b5f52604160045260245ffd5b906102e6906102be565b810190811067ffffffffffffffff82111761030057604052565b6102c8565b60e01b90565b151590565b6103198161030b565b0361032057565b5f80fd5b9050519061033182610310565b565b9060208282031261034c57610349915f01610324565b90565b61005c565b61035a90610156565b9052565b60409061038761038e949695939661037d60608401985f850190610351565b6020830190610351565b019061022f565b565b610398610052565b3d5f823e3d90fd5b9160206103c19294936103ba60408201965f830190610351565b019061022f565b565b5f9103126103cd57565b61005c565b90565b61ffff1690565b6103f06103eb6103f5926103d2565b610092565b6103d5565b90565b610401906103dc565b9052565b61043a61044194610430606094989795610426608086019a5f870190610351565b602085019061022f565b6040830190610351565b01906103f8565b565b61045461044f82610296565b6102a2565b60206323b872dd9133906104845f61046b306102ae565b9561048f89610478610052565b98899788968795610305565b85526004850161035e565b03925af180156105fa576105ce575b506104b06104ab82610296565b6102a2565b602063095ea7b3916104c86104c36100c9565b6100f3565b906104e65f87956104f16104da610052565b97889687958694610305565b8452600484016103a0565b03925af180156105c95761059d575b5061051161050c6100c9565b6100f3565b9163617ba037919092610523306102ae565b5f823b15610598575f94610555869261054a9461053e610052565b998a9889978896610305565b865260048601610405565b03925af1801561059357610567575b50565b610586905f3d811161058c575b61057e81836102dc565b8101906103c3565b5f610564565b503d610574565b610390565b6102ba565b6105bd9060203d81116105c2575b6105b581836102dc565b810190610333565b610500565b503d6105ab565b610390565b6105ee9060203d81116105f3575b6105e681836102dc565b810190610333565b61049e565b503d6105dc565b610390565b5f90565b5f80fd5b9061061a610613610052565b92836102dc565b565b9050519061062982610188565b565b91906020838203126106535761064d906106456020610607565b935f0161061c565b5f830152565b610603565b6fffffffffffffffffffffffffffffffff1690565b61067681610658565b0361067d57565b5f80fd5b9050519061068e8261066d565b565b64ffffffffff1690565b6106a381610690565b036106aa57565b5f80fd5b905051906106bb8261069a565b565b6106c6816103d5565b036106cd57565b5f80fd5b905051906106de826106bd565b565b905051906106ed82610162565b565b91906101e0838203126108235761081b9061070b6101e0610607565b93610718825f830161062b565b5f8601526107298260208301610681565b602086015261073b8260408301610681565b604086015261074d8260608301610681565b606086015261075f8260808301610681565b60808601526107718260a08301610681565b60a08601526107838260c083016106ae565b60c08601526107958260e083016106d1565b60e08601526107a88261010083016106e0565b6101008601526107bc8261012083016106e0565b6101208601526107d08261014083016106e0565b6101408601526107e48261016083016106e0565b6101608601526107f8826101808301610681565b61018086015261080c826101a08301610681565b6101a08601526101c001610681565b6101c0830152565b610603565b906101e0828203126108425761083f915f016106ef565b90565b61005c565b919061085a905f60208501940190610351565b565b6108669051610156565b90565b906020828203126108825761087f915f0161061c565b90565b61005c565b6101e06108ce916108966105ff565b506108a76108a26100c9565b6100f3565b6108c36335ea6a756108b7610052565b95869485938493610305565b835260048301610847565b03915afa9081156109ae576109046108ff6108fa610100610936956020955f9161097f575b500161085c565b610296565b6102a2565b6370a082319061092b610916306102ae565b9261091f610052565b95869485938493610305565b835260048301610847565b03915afa90811561097a575f9161094c575b5090565b61096d915060203d8111610973575b61096581836102dc565b810190610869565b5f610948565b503d61095b565b610390565b6109a191506101e03d81116109a7575b61099981836102dc565b810190610828565b5f6108f3565b503d61098f565b61039056fea2646970667358221220d1fe45f3cc0a0ea4ba0e2621cb0f1d928c54e6818eeec9d37c6487e2d1ce832464736f6c634300081c0033","linkReferences":{}},"methodIdentifiers":{"getSupplyBalance(address)":"f38e266a","pool()":"16f0115b","supply(address,uint256)":"f2b9fdb8"},"id":29}