{"abi":[{"type":"function","name":"getSupplyBalance","inputs":[{"name":"token","type":"address","internalType":"address"}],"outputs":[{"name":"","type":"uint256","internalType":"uint256"}],"stateMutability":"view"},{"type":"function","name":"pool","inputs":[],"outputs":[{"name":"","type":"address","internalType":"contract IPool"}],"stateMutability":"view"},{"type":"function","name":"supply","inputs":[{"name":"token","type":"address","internalType":"address"},{"name":"amount","type":"uint256","internalType":"uint256"}],"outputs":[],"stateMutability":"nonpayable"},{"type":"function","name":"withdraw","inputs":[{"name":"token","type":"address","internalType":"address"}],"outputs":[{"name":"","type":"uint256","internalType":"uint256"}],"stateMutability":"nonpayable"}],"bytecode":{"object":"0x608060405234601c57600e6020565b610d8161002b8239610d8190f35b6026565b60405190565b5f80fdfe60806040526004361015610013575b6102cb565b61001d5f3561005c565b806316f0115b1461005757806351cff8d914610052578063f2b9fdb81461004d5763f38e266a0361000e57610296565b610262565b6101d8565b610131565b60e01c90565b60405190565b5f80fd5b5f80fd5b5f91031261007a57565b61006c565b7387870bca3f3fd6335c3f4ce8392d69350b4fa4e290565b60018060a01b031690565b90565b6100b96100b46100be92610097565b6100a2565b610097565b90565b6100ca906100a5565b90565b6100d6906100c1565b90565b6100e96100e461007f565b6100cd565b90565b6100f46100d9565b90565b610100906100a5565b90565b61010c906100f7565b90565b61011890610103565b9052565b919061012f905f6020850194019061010f565b565b3461016157610141366004610070565b61015d61014c6100ec565b610154610062565b9182918261011c565b0390f35b610068565b61016f90610097565b90565b61017b81610166565b0361018257565b5f80fd5b9050359061019382610172565b565b906020828203126101ae576101ab915f01610186565b90565b61006c565b90565b6101bf906101b3565b9052565b91906101d6905f602085019401906101b6565b565b34610208576102046101f36101ee366004610195565b6104dc565b6101fb610062565b918291826101c3565b0390f35b610068565b610216816101b3565b0361021d57565b5f80fd5b9050359061022e8261020d565b565b9190604083820312610258578061024c610255925f8601610186565b93602001610221565b90565b61006c565b5f0190565b346102915761027b610275366004610230565b906106ff565b610283610062565b8061028d8161025d565b0390f35b610068565b346102c6576102c26102b16102ac366004610195565b610afd565b6102b9610062565b918291826101c3565b0390f35b610068565b5f80fd5b5f90565b6102dc906100f7565b90565b5f80fd5b601f801991011690565b634e487b7160e01b5f52604160045260245ffd5b9061030b906102e3565b810190811067ffffffffffffffff82111761032557604052565b6102ed565b60e01b90565b9050519061033d8261020d565b565b9060208282031261035857610355915f01610330565b90565b61006c565b61036690610166565b9052565b60409061039361039a949695939661038960608401985f85019061035d565b60208301906101b6565b019061035d565b565b6103a4610062565b3d5f823e3d90fd5b906103bf6103b8610062565b9283610301565b565b67ffffffffffffffff81116103df576103db6020916102e3565b0190565b6102ed565b906103f66103f1836103c1565b6103ac565b918252565b5f7f6265666f72652000000000000000000000000000000000000000000000000000910152565b61042c60076103e4565b90610439602083016103fb565b565b610443610422565b90565b5f7f6166746572200000000000000000000000000000000000000000000000000000910152565b61047760066103e4565b9061048460208301610446565b565b61048e61046d565b90565b5f7f77697468647461776e2000000000000000000000000000000000000000000000910152565b6104c2600a6103e4565b906104cf60208301610491565b565b6104d96104b8565b90565b6104e46102cf565b506104ee81610afd565b6104fe6104f96100d9565b610103565b9060206369328dec9284906105305f80199661053b61051c306102d3565b610524610062565b998a978896879561032a565b85526004850161036a565b03925af180156105bb5761055e61056c91610579945f9161058d575b5094610afd565b9161056761043b565b610c98565b610574610486565b610c98565b61058a816105856104d1565b610c98565b90565b6105ae915060203d81116105b4575b6105a68183610301565b81019061033f565b5f610557565b503d61059c565b61039c565b6105c9906100a5565b90565b6105d5906105c0565b90565b6105e1906100f7565b90565b151590565b6105f2816105e4565b036105f957565b5f80fd5b9050519061060a826105e9565b565b9060208282031261062557610622915f016105fd565b90565b61006c565b60409061065361065a949695939661064960608401985f85019061035d565b602083019061035d565b01906101b6565b565b91602061067d92949361067660408201965f83019061035d565b01906101b6565b565b5f91031261068957565b61006c565b90565b61ffff1690565b6106ac6106a76106b19261068e565b6100a2565b610691565b90565b6106bd90610698565b9052565b6106f66106fd946106ec6060949897956106e2608086019a5f87019061035d565b60208501906101b6565b604083019061035d565b01906106b4565b565b61071061070b826105cc565b6105d8565b60206323b872dd9133906107405f610727306102d3565b9561074b89610734610062565b9889978896879561032a565b85526004850161062a565b03925af180156108b65761088a575b5061076c610767826105cc565b6105d8565b602063095ea7b39161078461077f6100d9565b610103565b906107a25f87956107ad610796610062565b9788968795869461032a565b84526004840161065c565b03925af1801561088557610859575b506107cd6107c86100d9565b610103565b9163617ba0379190926107df306102d3565b5f823b15610854575f946108118692610806946107fa610062565b998a988997889661032a565b8652600486016106c1565b03925af1801561084f57610823575b50565b610842905f3d8111610848575b61083a8183610301565b81019061067f565b5f610820565b503d610830565b61039c565b6102df565b6108799060203d811161087e575b6108718183610301565b81019061060c565b6107bc565b503d610867565b61039c565b6108aa9060203d81116108af575b6108a28183610301565b81019061060c565b61075a565b503d610898565b61039c565b5f80fd5b91906020838203126108e7576108e1906108d960206103ac565b935f01610330565b5f830152565b6108bb565b6fffffffffffffffffffffffffffffffff1690565b61090a816108ec565b0361091157565b5f80fd5b9050519061092282610901565b565b64ffffffffff1690565b61093781610924565b0361093e57565b5f80fd5b9050519061094f8261092e565b565b61095a81610691565b0361096157565b5f80fd5b9050519061097282610951565b565b9050519061098182610172565b565b91906101e083820312610ab757610aaf9061099f6101e06103ac565b936109ac825f83016108bf565b5f8601526109bd8260208301610915565b60208601526109cf8260408301610915565b60408601526109e18260608301610915565b60608601526109f38260808301610915565b6080860152610a058260a08301610915565b60a0860152610a178260c08301610942565b60c0860152610a298260e08301610965565b60e0860152610a3c826101008301610974565b610100860152610a50826101208301610974565b610120860152610a64826101408301610974565b610140860152610a78826101608301610974565b610160860152610a8c826101808301610915565b610180860152610aa0826101a08301610915565b6101a08601526101c001610915565b6101c0830152565b6108bb565b906101e082820312610ad657610ad3915f01610983565b90565b61006c565b9190610aee905f6020850194019061035d565b565b610afa9051610166565b90565b6101e0610b4491610b0c6102cf565b50610b1d610b186100d9565b610103565b610b396335ea6a75610b2d610062565b9586948593849361032a565b835260048301610adb565b03915afa908115610c2457610b7a610b75610b70610100610bac956020955f91610bf5575b5001610af0565b6105cc565b6105d8565b6370a0823190610ba1610b8c306102d3565b92610b95610062565b9586948593849361032a565b835260048301610adb565b03915afa908115610bf0575f91610bc2575b5090565b610be3915060203d8111610be9575b610bdb8183610301565b81019061033f565b5f610bbe565b503d610bd1565b61039c565b610c1791506101e03d8111610c1d575b610c0f8183610301565b810190610abc565b5f610b69565b503d610c05565b61039c565b5190565b60209181520190565b90825f9392825e0152565b610c60610c69602093610c6e93610c5781610c29565b93848093610c2d565b95869101610c36565b6102e3565b0190565b92916020610c8e610c969360408701908782035f890152610c41565b9401906101b6565b565b90610cd3610cd892610cc4610cab610062565b938492600460208501632d839cb360e21b815201610c72565b60208201810382520382610301565b610cda565b565b610ced90610ce86001610d19565b610d39565b565b6a636f6e736f6c652e6c6f6790565b5f8091610d09610cef565b602082519201905afa50565b5f90565b610d21610d15565b5090565b634e487b7160e01b5f52605160045260245ffd5b600103610d2557610d4990610cfe565b56fea264697066735822122089d85d986e44c4934c590c3e328e7bed7686a2affaedd28b1ffd341830c2ca0764736f6c634300081c0033","linkReferences":{}},"methodIdentifiers":{"getSupplyBalance(address)":"f38e266a","pool()":"16f0115b","supply(address,uint256)":"f2b9fdb8","withdraw(address)":"51cff8d9"},"id":24}