{"abi":[{"type":"function","name":"close","inputs":[{"name":"params","type":"tuple","internalType":"struct LongShort.CloseParams","components":[{"name":"collateralToken","type":"address","internalType":"address"},{"name":"collateralAmount","type":"uint256","internalType":"uint256"},{"name":"maxCollateralToWithdraw","type":"uint256","internalType":"uint256"},{"name":"borrowToken","type":"address","internalType":"address"},{"name":"maxDebtToRepay","type":"uint256","internalType":"uint256"},{"name":"minSwapAmountOut","type":"uint256","internalType":"uint256"},{"name":"swapData","type":"bytes","internalType":"bytes"}]}],"outputs":[{"name":"collateralWithdrawn","type":"uint256","internalType":"uint256"},{"name":"debtRepaidFromMsgSender","type":"uint256","internalType":"uint256"},{"name":"borrowedLeftover","type":"uint256","internalType":"uint256"}],"stateMutability":"nonpayable"},{"type":"function","name":"open","inputs":[{"name":"params","type":"tuple","internalType":"struct LongShort.OpenParams","components":[{"name":"collateralToken","type":"address","internalType":"address"},{"name":"collateralAmount","type":"uint256","internalType":"uint256"},{"name":"borrowToken","type":"address","internalType":"address"},{"name":"borrowAmount","type":"uint256","internalType":"uint256"},{"name":"minHealthFactor","type":"uint256","internalType":"uint256"},{"name":"minSwapAmountOut","type":"uint256","internalType":"uint256"},{"name":"swapData","type":"bytes","internalType":"bytes"}]}],"outputs":[{"name":"collateralAmountOut","type":"uint256","internalType":"uint256"}],"stateMutability":"nonpayable"},{"type":"function","name":"pool","inputs":[],"outputs":[{"name":"","type":"address","internalType":"contract IPool"}],"stateMutability":"view"},{"type":"function","name":"router","inputs":[],"outputs":[{"name":"","type":"address","internalType":"contract ISwapRouter"}],"stateMutability":"view"}],"bytecode":{"object":"0x608060405234601c57600e6020565b611dde61002b8239611dde90f35b6026565b60405190565b5f80fdfe60806040526004361015610013575b6105f0565b61001d5f3561005c565b80630130de751461005757806316f0115b1461005257806320cd42151461004d5763f887ea400361000e576105bb565b610507565b6103ba565b6102cf565b60e01c90565b60405190565b5f80fd5b5f80fd5b5f80fd5b5f80fd5b601f801991011690565b634e487b7160e01b5f52604160045260245ffd5b906100a090610078565b810190811067ffffffffffffffff8211176100ba57604052565b610082565b906100d26100cb610062565b9283610096565b565b5f80fd5b60018060a01b031690565b6100ec906100d8565b90565b6100f8816100e3565b036100ff57565b5f80fd5b90503590610110826100ef565b565b90565b61011e81610112565b0361012557565b5f80fd5b9050359061013682610115565b565b5f80fd5b5f80fd5b67ffffffffffffffff811161015e5761015a602091610078565b0190565b610082565b90825f939282370152565b9092919261018361017e82610140565b6100bf565b9381855260208501908284011161019f5761019d92610163565b565b61013c565b9080601f830112156101c2578160206101bf9335910161016e565b90565b610138565b91909160e081840312610273576101de60e06100bf565b926101eb815f8401610103565b5f8501526101fc8160208401610129565b602085015261020e8160408401610103565b60408501526102208160608401610129565b60608501526102328160808401610129565b60808501526102448160a08401610129565b60a085015260c082013567ffffffffffffffff811161026e5761026792016101a4565b60c0830152565b6100d4565b610074565b906020828203126102a8575f82013567ffffffffffffffff81116102a3576102a092016101c7565b90565b610070565b61006c565b6102b690610112565b9052565b91906102cd905f602085019401906102ad565b565b346102ff576102fb6102ea6102e5366004610278565b610b44565b6102f2610062565b918291826102ba565b0390f35b610068565b5f91031261030e57565b61006c565b7387870bca3f3fd6335c3f4ce8392d69350b4fa4e290565b90565b61034261033d610347926100d8565b61032b565b6100d8565b90565b6103539061032e565b90565b61035f9061034a565b90565b61037261036d610313565b610356565b90565b61037d610362565b90565b6103899061032e565b90565b61039590610380565b90565b6103a19061038c565b9052565b91906103b8905f60208501940190610398565b565b346103ea576103ca366004610304565b6103e66103d5610375565b6103dd610062565b918291826103a5565b0390f35b610068565b91909160e08184031261049b5761040660e06100bf565b92610413815f8401610103565b5f8501526104248160208401610129565b60208501526104368160408401610129565b60408501526104488160608401610103565b606085015261045a8160808401610129565b608085015261046c8160a08401610129565b60a085015260c082013567ffffffffffffffff81116104965761048f92016101a4565b60c0830152565b6100d4565b610074565b906020828203126104d0575f82013567ffffffffffffffff81116104cb576104c892016103ef565b90565b610070565b61006c565b6040906104fe61050594969593966104f460608401985f8501906102ad565b60208301906102ad565b01906102ad565b565b3461053a5761053661052261051d3660046104a0565b6113b2565b61052d939193610062565b938493846104d5565b0390f35b610068565b7368b3465833fb72a70ecdf485e0e4c7bd8665fc4590565b6105609061032e565b90565b61056c90610557565b90565b61057f61057a61053f565b610563565b90565b61058a61056f565b90565b61059690610380565b90565b6105a29061058d565b9052565b91906105b9905f60208501940190610599565b565b346105eb576105cb366004610304565b6105e76105d6610582565b6105de610062565b918291826105a6565b0390f35b610068565b5f80fd5b5f90565b6106029051610112565b90565b90565b61061c61061761062192610605565b61032b565b610112565b90565b60209181520190565b5f7f68656c746820666163746f720000000000000000000000000000000000000000910152565b610661600c602092610624565b61066a8161062d565b0190565b6106839060208101905f818303910152610654565b90565b1561068d57565b610695610062565b62461bcd60e51b8152806106ab6004820161066e565b0390fd5b6106b990516100e3565b90565b6106c59061032e565b90565b6106d1906106bc565b90565b6106dd90610380565b90565b6106e990610380565b90565b5f80fd5b60e01b90565b151590565b610704816106f6565b0361070b57565b5f80fd5b9050519061071c826106fb565b565b9060208282031261073757610734915f0161070f565b90565b61006c565b610745906100e3565b9052565b604090610772610779949695939661076860608401985f85019061073c565b602083019061073c565b01906102ad565b565b610783610062565b3d5f823e3d90fd5b9160206107ac9294936107a560408201965f83019061073c565b01906102ad565b565b5f9103126107b857565b61006c565b90565b61ffff1690565b6107db6107d66107e0926107bd565b61032b565b6107c0565b90565b6107ec906107c7565b9052565b61082561082c9461081b606094989795610811608086019a5f87019061073c565b60208501906102ad565b604083019061073c565b01906107e3565b565b90565b61084561084061084a9261082e565b61032b565b610112565b90565b61085690610831565b9052565b909594926108a59461089461089e9261088a60809661088060a088019c5f89019061073c565b60208701906102ad565b604085019061084d565b60608301906107e3565b019061073c565b565b905051906108b482610115565b565b909160c082840312610915576108ce835f84016108a7565b926108dc81602085016108a7565b926108ea82604083016108a7565b926109126108fb84606085016108a7565b9361090981608086016108a7565b9360a0016108a7565b90565b61006c565b919061092d905f6020850194019061073c565b565b5f7f6d696e2068656c746820666163746f7200000000000000000000000000000000910152565b6109636010602092610624565b61096c8161092f565b0190565b6109859060208101905f818303910152610956565b90565b1561098f57565b610997610062565b62461bcd60e51b8152806109ad60048201610970565b0390fd5b62ffffff1690565b6109c2816109b1565b036109c957565b5f80fd5b905051906109da826109b9565b565b906020828203126109f5576109f2915f016109cd565b90565b61006c565b5190565b610a0860e06100bf565b90565b90610a15906100e3565b9052565b90610a23906109b1565b9052565b90610a3190610112565b9052565b610a49610a44610a4e926107bd565b61032b565b6100d8565b90565b90610a5b906100d8565b9052565b90602082820312610a7857610a75915f016108a7565b90565b61006c565b610a86906100e3565b9052565b610a93906109b1565b9052565b610aa090610112565b9052565b610aad906100d8565b9052565b9060c080610b2d93610ac95f8201515f860190610a7d565b610adb60208201516020860190610a7d565b610aed60408201516040860190610a8a565b610aff60608201516060860190610a7d565b610b1160808201516080860190610a97565b610b2360a082015160a0860190610a97565b0151910190610aa4565b565b9190610b42905f60e08501940190610ab1565b565b610b4c6105f4565b50610b7c610b5c608083016105f8565b610b76610b70670de0b6b3a7640000610608565b91610112565b11610686565b610b97610b92610b8d5f84016106af565b6106c8565b6106d4565b60206323b872dd913390610bd15f610bae306106e0565b95610bdc610bbd878a016105f8565b610bc5610062565b988997889687956106f0565b855260048501610749565b03925af180156110cc576110a0575b50610c07610c02610bfd5f84016106af565b6106c8565b6106d4565b602063095ea7b391610c1f610c1a610362565b61038c565b90610c475f610c2f8588016105f8565b95610c52610c3b610062565b978896879586946106f0565b84526004840161078b565b03925af1801561109b5761106f575b50610c72610c6d610362565b61038c565b63617ba037610c825f84016106af565b610c8e602085016105f8565b92335f823b1561106a575f94610cc28692610cb794610cab610062565b998a98899788966106f0565b8652600486016107f0565b03925af1801561106557611039575b50610ce2610cdd610362565b61038c565b63a415bcad610cf3604084016106af565b610cff606085016105f8565b926002925f3391833b1561103457610d38610d2d935f97938894610d21610062565b9a8b998a9889976106f0565b87526004870161085a565b03925af1801561102f57611003575b50610d8760c0610d5d610d58610362565b61038c565b63bf92857c90610d7c3392610d70610062565b958694859384936106f0565b83526004830161091a565b03915afa8015610ffe57610dcb915f808080808096945050505050610fcc575b50610dc5610dbf610dba608086016105f8565b610112565b91610112565b11610988565b610de7610de2610ddd604084016106af565b6106c8565b6106d4565b602063095ea7b391610dff610dfa61056f565b61058d565b90610e285f610e10606088016105f8565b95610e33610e1c610062565b978896879586946106f0565b84526004840161078b565b03925af18015610fc757610f9b575b508060c00151610e51816109fa565b60208201019060200190610e64916109dc565b610e6c61056f565b610e759061058d565b906304e45aaf9083604001610e89906106af565b93805f01610e96906106af565b91903381606001610ea6906105f8565b9160a001610eb3906105f8565b925f94610ebe6109fe565b985f8a0190610ecc91610a0b565b6020890190610eda91610a0b565b6040880190610ee891610a19565b6060870190610ef691610a0b565b6080860190610f0491610a27565b60a0850190610f1291610a27565b610f1b90610a35565b60c0840190610f2991610a51565b610f31610062565b8093610f3d82936106f0565b82526004820190610f4d91610b2f565b03815a6020945f91f1908115610f96575f91610f68575b5090565b610f89915060203d8111610f8f575b610f818183610096565b810190610a5f565b5f610f64565b503d610f77565b61077b565b610fbb9060203d8111610fc0575b610fb38183610096565b81019061071e565b610e42565b503d610fa9565b61077b565b610fed915060c03d8111610ff7575b610fe58183610096565b8101906108b6565b9450505050610da7565b503d610fdb565b61077b565b611022905f3d8111611028575b61101a8183610096565b8101906107ae565b5f610d47565b503d611010565b61077b565b6106ec565b611058905f3d811161105e575b6110508183610096565b8101906107ae565b5f610cd1565b503d611046565b61077b565b6106ec565b61108f9060203d8111611094575b6110878183610096565b81019061071e565b610c61565b503d61107d565b61077b565b6110c09060203d81116110c5575b6110b88183610096565b81019061071e565b610beb565b503d6110ae565b61077b565b91906020838203126110f9576110f3906110eb60206100bf565b935f016108a7565b5f830152565b610074565b6fffffffffffffffffffffffffffffffff1690565b61111c816110fe565b0361112357565b5f80fd5b9050519061113482611113565b565b64ffffffffff1690565b61114981611136565b0361115057565b5f80fd5b9050519061116182611140565b565b61116c816107c0565b0361117357565b5f80fd5b9050519061118482611163565b565b90505190611193826100ef565b565b91906101e0838203126112c9576112c1906111b16101e06100bf565b936111be825f83016110d1565b5f8601526111cf8260208301611127565b60208601526111e18260408301611127565b60408601526111f38260608301611127565b60608601526112058260808301611127565b60808601526112178260a08301611127565b60a08601526112298260c08301611154565b60c086015261123b8260e08301611177565b60e086015261124e826101008301611186565b610100860152611262826101208301611186565b610120860152611276826101408301611186565b61014086015261128a826101608301611186565b61016086015261129e826101808301611127565b6101808601526112b2826101a08301611127565b6101a08601526101c001611127565b6101c0830152565b610074565b906101e0828203126112e8576112e5915f01611195565b90565b61006c565b634e487b7160e01b5f52601160045260245ffd5b61131061131691939293610112565b92610112565b820391821161132157565b6112ed565b61135b61136294611351606094989795611347608086019a5f87019061073c565b60208501906102ad565b604083019061084d565b019061073c565b565b60409061138d611394949695939661138360608401985f85019061073c565b60208301906102ad565b019061073c565b565b6113aa6113a56113af926107bd565b61032b565b610112565b90565b906113bb6105f4565b506113c46105f4565b506113cd6105f4565b506113e96113e46113df5f85016106af565b6106c8565b6106d4565b60206323b872dd9133906114235f611400306106e0565b9561142e61140f878b016105f8565b611417610062565b988997889687956106f0565b855260048501610749565b03925af18015611d7257611d46575b5061145961145461144f5f85016106af565b6106c8565b6106d4565b602063095ea7b39161147161146c61056f565b61058d565b906114995f6114818589016105f8565b956114a461148d610062565b978896879586946106f0565b84526004840161078b565b03925af18015611d4157611d15575b508160c001516114c2816109fa565b602082010190602001906114d5916109dc565b6114dd61056f565b6114e69061058d565b6304e45aaf845f016114f7906106af565b9285606001611505906106af565b9030611510906106e0565b8760200161151d906105f8565b908860a00161152b906105f8565b925f946115366109fe565b985f8a019061154491610a0b565b602089019061155291610a0b565b604088019061156091610a19565b606087019061156e91610a0b565b608086019061157c91610a27565b60a085019061158a91610a27565b61159390610a35565b60c08401906115a191610a51565b6115a9610062565b80936115b582936106f0565b825260048201906115c591610b2f565b03815a6020945f91f1908115611d10575f91611ce2575b50906116296101e06115f46115ef610362565b61038c565b6335ea6a759061161e611609606089016106af565b92611612610062565b958694859384936106f0565b83526004830161091a565b03915afa908115611cdd5761165f61165a611655610140611689956020955f91611cae575b50016106af565b6106c8565b6106d4565b6370a082319061167e3392611672610062565b958694859384936106f0565b83526004830161091a565b03915afa8015611ca9576116b1915f91611c7b575b506116ab608086016105f8565b90611d77565b6116b96105f4565b92816116cd6116c783610112565b91610112565b11611bc3575b506116f06116eb6116e6606087016106af565b6106c8565b6106d4565b602063095ea7b391611708611703610362565b61038c565b906117275f80199561173261171b610062565b978896879586946106f0565b84526004840161078b565b03925af18015611bbe57611b92575b50602061175461174f610362565b61038c565b9163573ade81926117885f61176b60608a016106af565b93956117936002339061177c610062565b998a98899788966106f0565b865260048601611326565b03925af18015611b8d57611b61575b506117ed6101e06117b96117b4610362565b61038c565b6335ea6a75906117e26117cd5f89016106af565b926117d6610062565b958694859384936106f0565b83526004830161091a565b03915afa908115611b5c5761180e91610100915f91611b2d575b50016106af565b61181f61181a826106c8565b6106d4565b6323b872dd903390611870602061184661184161183b306106e0565b976106c8565b6106d4565b6370a08231906118653392611859610062565b958694859384936106f0565b83526004830161091a565b03915afa908115611b28576020946118c46118a56118b9948c5f958692611af2575b50604061189f91016105f8565b90611d77565b6118ad610062565b988997889687956106f0565b855260048501610749565b03925af18015611aed57611ac1575b506118e46118df610362565b61038c565b60206369328dec916118f75f87016106af565b906119215f61190860408a016105f8565b9561192c33611915610062565b988997889687956106f0565b855260048501611364565b03925af1908115611abc575f91611a8e575b50611992602061196061195b611956606089016106af565b6106c8565b6106d4565b6370a0823190611987611972306106e0565b9261197b610062565b958694859384936106f0565b83526004830161091a565b03915afa908115611a89575f91611a5b575b5093846119b96119b35f611396565b91610112565b116119c8575b50919291929190565b6119df6119da60606119e493016106af565b6106c8565b6106d4565b602063a9059cbb913390611a0b5f8995611a166119ff610062565b978896879586946106f0565b84526004840161078b565b03925af18015611a5657611a2a575b6119bf565b611a4a9060203d8111611a4f575b611a428183610096565b81019061071e565b611a25565b503d611a38565b61077b565b611a7c915060203d8111611a82575b611a748183610096565b810190610a5f565b5f6119a4565b503d611a6a565b61077b565b611aaf915060203d8111611ab5575b611aa78183610096565b810190610a5f565b5f61193e565b503d611a9d565b61077b565b611ae19060203d8111611ae6575b611ad98183610096565b81019061071e565b6118d3565b503d611acf565b61077b565b61189f919250611b196040918c3d8111611b21575b611b118183610096565b810190610a5f565b929150611892565b503d611b07565b61077b565b611b4f91506101e03d8111611b55575b611b478183610096565b8101906112ce565b5f611807565b503d611b3d565b61077b565b611b819060203d8111611b86575b611b798183610096565b810190610a5f565b6117a2565b503d611b6f565b61077b565b611bb29060203d8111611bb7575b611baa8183610096565b81019061071e565b611741565b503d611ba0565b61077b565b909250611be2611bdd611bd8606087016106af565b6106c8565b6106d4565b9060206323b872dd923390611c1d5f611bfa306106e0565b96611c28611c098b8990611301565b611c11610062565b998a97889687956106f0565b855260048501610749565b03925af1918215611c7657611c4392611c4a575b5083611301565b915f6116d3565b611c6a9060203d8111611c6f575b611c628183610096565b81019061071e565b611c3c565b503d611c58565b61077b565b611c9c915060203d8111611ca2575b611c948183610096565b810190610a5f565b5f61169e565b503d611c8a565b61077b565b611cd091506101e03d8111611cd6575b611cc88183610096565b8101906112ce565b5f61164e565b503d611cbe565b61077b565b611d03915060203d8111611d09575b611cfb8183610096565b810190610a5f565b5f6115dc565b503d611cf1565b61077b565b611d359060203d8111611d3a575b611d2d8183610096565b81019061071e565b6114b3565b503d611d23565b61077b565b611d669060203d8111611d6b575b611d5e8183610096565b81019061071e565b61143d565b503d611d54565b61077b565b90611d806105f4565b5081611d94611d8e83610112565b91610112565b11155f14611da157505b90565b9050611d9e56fea26469706673582212208419fe166824d40f4dd15eb9030e73703f0b1849dab341a68986549a2dce509764736f6c634300081c0033","linkReferences":{}},"methodIdentifiers":{"close((address,uint256,uint256,address,uint256,uint256,bytes))":"20cd4215","open((address,uint256,address,uint256,uint256,uint256,bytes))":"0130de75","pool()":"16f0115b","router()":"f887ea40"},"id":24}