{"abi":[{"type":"function","name":"liquidate","inputs":[{"name":"collateral","type":"address","internalType":"address"},{"name":"borrowedToken","type":"address","internalType":"address"},{"name":"user","type":"address","internalType":"address"}],"outputs":[],"stateMutability":"nonpayable"},{"type":"function","name":"pool","inputs":[],"outputs":[{"name":"","type":"address","internalType":"contract IPool"}],"stateMutability":"view"}],"bytecode":{"object":"0x608060405234601c57600e6020565b61094461002b823961094490f35b6026565b60405190565b5f80fdfe60806040526004361015610013575b6101e8565b61001d5f3561003c565b806316f0115b146100375763ca5ce2ec0361000e576101b4565b610111565b60e01c90565b60405190565b5f80fd5b5f80fd5b5f91031261005a57565b61004c565b7387870bca3f3fd6335c3f4ce8392d69350b4fa4e290565b60018060a01b031690565b90565b61009961009461009e92610077565b610082565b610077565b90565b6100aa90610085565b90565b6100b6906100a1565b90565b6100c96100c461005f565b6100ad565b90565b6100d46100b9565b90565b6100e090610085565b90565b6100ec906100d7565b90565b6100f8906100e3565b9052565b919061010f905f602085019401906100ef565b565b3461014157610121366004610050565b61013d61012c6100cc565b610134610042565b918291826100fc565b0390f35b610048565b61014f90610077565b90565b61015b81610146565b0361016257565b5f80fd5b9050359061017382610152565b565b90916060828403126101aa576101a7610190845f8501610166565b9361019e8160208601610166565b93604001610166565b90565b61004c565b5f0190565b346101e3576101cd6101c7366004610175565b9161063d565b6101d5610042565b806101df816101af565b0390f35b610048565b5f80fd5b5f80fd5b601f801991011690565b634e487b7160e01b5f52604160045260245ffd5b90610218906101f0565b810190811067ffffffffffffffff82111761023257604052565b6101fa565b60e01b90565b5f80fd5b9061025461024d610042565b928361020e565b565b90565b61026281610256565b0361026957565b5f80fd5b9050519061027a82610259565b565b91906020838203126102a45761029e906102966020610241565b935f0161026d565b5f830152565b61023d565b6fffffffffffffffffffffffffffffffff1690565b6102c7816102a9565b036102ce57565b5f80fd5b905051906102df826102be565b565b64ffffffffff1690565b6102f4816102e1565b036102fb57565b5f80fd5b9050519061030c826102eb565b565b61ffff1690565b61031e8161030e565b0361032557565b5f80fd5b9050519061033682610315565b565b9050519061034582610152565b565b91906101e08382031261047b57610473906103636101e0610241565b93610370825f830161027c565b5f86015261038182602083016102d2565b602086015261039382604083016102d2565b60408601526103a582606083016102d2565b60608601526103b782608083016102d2565b60808601526103c98260a083016102d2565b60a08601526103db8260c083016102ff565b60c08601526103ed8260e08301610329565b60e0860152610400826101008301610338565b610100860152610414826101208301610338565b610120860152610428826101408301610338565b61014086015261043c826101608301610338565b6101608601526104508261018083016102d2565b610180860152610464826101a083016102d2565b6101a08601526101c0016102d2565b6101c0830152565b61023d565b906101e08282031261049a57610497915f01610347565b90565b61004c565b6104a890610146565b9052565b91906104bf905f6020850194019061049f565b565b6104c9610042565b3d5f823e3d90fd5b6104db9051610146565b90565b6104e790610085565b90565b6104f3906104de565b90565b6104ff906100d7565b90565b9060208282031261051b57610518915f0161026d565b90565b61004c565b610529906100d7565b90565b151590565b61053a8161052c565b0361054157565b5f80fd5b9050519061055282610531565b565b9060208282031261056d5761056a915f01610545565b90565b61004c565b61057b90610256565b9052565b6040906105a86105af949695939661059e60608401985f85019061049f565b602083019061049f565b0190610572565b565b9160206105d29294936105cb60408201965f83019061049f565b0190610572565b565b5f9103126105de57565b61004c565b6105ec9061052c565b9052565b9095949261063b9461062a6106349261062060809661061660a088019c5f89019061049f565b602087019061049f565b604085019061049f565b6060830190610572565b01906105e3565b565b9061067e6101e061065461064f6100b9565b6100e3565b6335ea6a75906106738592610667610042565b95869485938493610237565b8352600483016104ac565b03915afa908115610909576106b46106af6106aa6101406106de956020955f916108da575b50016104d1565b6104ea565b6104f6565b6370a08231906106d387926106c7610042565b95869485938493610237565b8352600483016104ac565b03915afa9081156108d5575f916108a7575b50916107036106fe836104ea565b6104f6565b60206323b872dd9133906107335f61071a30610520565b9561073e8a610727610042565b98899788968795610237565b85526004850161057f565b03925af180156108a257610876575b5061075f61075a836104ea565b6104f6565b602063095ea7b3916107776107726100b9565b6100e3565b906107955f88956107a0610789610042565b97889687958694610237565b8452600484016105b1565b03925af1801561087157610845575b506107c06107bb6100b9565b6100e3565b9062a718a9909294935f91833b15610840576107fd6107f2935f979388946107e6610042565b9a8b998a988997610237565b8752600487016105f0565b03925af1801561083b5761080f575b50565b61082e905f3d8111610834575b610826818361020e565b8101906105d4565b5f61080c565b503d61081c565b6104c1565b6101ec565b6108659060203d811161086a575b61085d818361020e565b810190610554565b6107af565b503d610853565b6104c1565b6108969060203d811161089b575b61088e818361020e565b810190610554565b61074d565b503d610884565b6104c1565b6108c8915060203d81116108ce575b6108c0818361020e565b810190610502565b5f6106f0565b503d6108b6565b6104c1565b6108fc91506101e03d8111610902575b6108f4818361020e565b810190610480565b5f6106a3565b503d6108ea565b6104c156fea2646970667358221220674d1650751b65acac7d6229713c3b8aacf173186b4b62781b2d9ee0a3ca185f64736f6c634300081c0033","linkReferences":{}},"methodIdentifiers":{"liquidate(address,address,address)":"ca5ce2ec","pool()":"16f0115b"},"id":26}