{"abi":[{"type":"constructor","inputs":[{"name":"poolAddress","type":"address","internalType":"address"},{"name":"routerAddress","type":"address","internalType":"address"}],"stateMutability":"nonpayable"},{"type":"function","name":"close","inputs":[{"name":"params","type":"tuple","internalType":"struct LongShort.CloseParams","components":[{"name":"collateralToken","type":"address","internalType":"address"},{"name":"collateralAmount","type":"uint256","internalType":"uint256"},{"name":"maxCollateralToWithdraw","type":"uint256","internalType":"uint256"},{"name":"borrowToken","type":"address","internalType":"address"},{"name":"maxDebtToRepay","type":"uint256","internalType":"uint256"},{"name":"minSwapAmountOut","type":"uint256","internalType":"uint256"},{"name":"swapData","type":"bytes","internalType":"bytes"}]}],"outputs":[{"name":"collateralWithdrawn","type":"uint256","internalType":"uint256"},{"name":"debtRepaidFromMsgSender","type":"uint256","internalType":"uint256"},{"name":"borrowedLeftover","type":"uint256","internalType":"uint256"}],"stateMutability":"nonpayable"},{"type":"function","name":"open","inputs":[{"name":"params","type":"tuple","internalType":"struct LongShort.OpenParams","components":[{"name":"collateralToken","type":"address","internalType":"address"},{"name":"collateralAmount","type":"uint256","internalType":"uint256"},{"name":"borrowToken","type":"address","internalType":"address"},{"name":"borrowAmount","type":"uint256","internalType":"uint256"},{"name":"minHealthFactor","type":"uint256","internalType":"uint256"},{"name":"minSwapAmountOut","type":"uint256","internalType":"uint256"},{"name":"swapData","type":"bytes","internalType":"bytes"}]}],"outputs":[{"name":"collateralAmountOut","type":"uint256","internalType":"uint256"}],"stateMutability":"nonpayable"}],"bytecode":{"object":"0x60c06040523461008f5761001a610014610163565b906101d4565b610022610094565b611daa6101ef8239608051818181610a9b01528181610b0701528181610b9001528181610c240152818161153801528181611665015281816116ca01528181611748015261188c015260a051818181610cdf01528181610d6a01528181611383015261140d0152611daa90f35b61009a565b60405190565b5f80fd5b601f801991011690565b634e487b7160e01b5f52604160045260245ffd5b906100c69061009e565b810190811060018060401b038211176100de57604052565b6100a8565b906100f66100ef610094565b92836100bc565b565b5f80fd5b60018060a01b031690565b610110906100fc565b90565b61011c81610107565b0361012357565b5f80fd5b9050519061013482610113565b565b919060408382031261015e578061015261015b925f8601610127565b93602001610127565b90565b6100f8565b610181611f9980380380610176816100e3565b928339810190610136565b9091565b90565b61019c6101976101a1926100fc565b610185565b6100fc565b90565b6101ad90610188565b90565b6101b9906101a4565b90565b6101c590610188565b90565b6101d1906101bc565b90565b906101e16101e9926101b0565b6080526101c8565b60a05256fe60806040526004361015610013575b610434565b61001d5f3561003c565b80630130de7514610037576320cd42150361000e576103fc565b6102af565b60e01c90565b60405190565b5f80fd5b5f80fd5b5f80fd5b5f80fd5b601f801991011690565b634e487b7160e01b5f52604160045260245ffd5b9061008090610058565b810190811067ffffffffffffffff82111761009a57604052565b610062565b906100b26100ab610042565b9283610076565b565b5f80fd5b60018060a01b031690565b6100cc906100b8565b90565b6100d8816100c3565b036100df57565b5f80fd5b905035906100f0826100cf565b565b90565b6100fe816100f2565b0361010557565b5f80fd5b90503590610116826100f5565b565b5f80fd5b5f80fd5b67ffffffffffffffff811161013e5761013a602091610058565b0190565b610062565b90825f939282370152565b9092919261016361015e82610120565b61009f565b9381855260208501908284011161017f5761017d92610143565b565b61011c565b9080601f830112156101a25781602061019f9335910161014e565b90565b610118565b91909160e081840312610253576101be60e061009f565b926101cb815f84016100e3565b5f8501526101dc8160208401610109565b60208501526101ee81604084016100e3565b60408501526102008160608401610109565b60608501526102128160808401610109565b60808501526102248160a08401610109565b60a085015260c082013567ffffffffffffffff811161024e576102479201610184565b60c0830152565b6100b4565b610054565b90602082820312610288575f82013567ffffffffffffffff81116102835761028092016101a7565b90565b610050565b61004c565b610296906100f2565b9052565b91906102ad905f6020850194019061028d565b565b346102df576102db6102ca6102c5366004610258565b6109cb565b6102d2610042565b9182918261029a565b0390f35b610048565b91909160e081840312610390576102fb60e061009f565b92610308815f84016100e3565b5f8501526103198160208401610109565b602085015261032b8160408401610109565b604085015261033d81606084016100e3565b606085015261034f8160808401610109565b60808501526103618160a08401610109565b60a085015260c082013567ffffffffffffffff811161038b576103849201610184565b60c0830152565b6100b4565b610054565b906020828203126103c5575f82013567ffffffffffffffff81116103c0576103bd92016102e4565b90565b610050565b61004c565b6040906103f36103fa94969593966103e960608401985f85019061028d565b602083019061028d565b019061028d565b565b3461042f5761042b610417610412366004610395565b6112cf565b610422939193610042565b938493846103ca565b0390f35b610048565b5f80fd5b5f90565b61044690516100f2565b90565b90565b90565b61046361045e61046892610449565b61044c565b6100f2565b90565b60209181520190565b5f7f68656c746820666163746f720000000000000000000000000000000000000000910152565b6104a8600c60209261046b565b6104b181610474565b0190565b6104ca9060208101905f81830391015261049b565b90565b156104d457565b6104dc610042565b62461bcd60e51b8152806104f2600482016104b5565b0390fd5b61050090516100c3565b90565b61051761051261051c926100b8565b61044c565b6100b8565b90565b61052890610503565b90565b6105349061051f565b90565b61054090610503565b90565b61054c90610537565b90565b61055890610537565b90565b5f80fd5b60e01b90565b151590565b61057381610565565b0361057a57565b5f80fd5b9050519061058b8261056a565b565b906020828203126105a6576105a3915f0161057e565b90565b61004c565b6105b4906100c3565b9052565b6040906105e16105e894969593966105d760608401985f8501906105ab565b60208301906105ab565b019061028d565b565b6105f2610042565b3d5f823e3d90fd5b61060390610537565b90565b91602061062792949361062060408201965f8301906105ab565b019061028d565b565b5f91031261063357565b61004c565b90565b61ffff1690565b61065661065161065b92610638565b61044c565b61063b565b90565b61066790610642565b9052565b6106a06106a79461069660609498979561068c608086019a5f8701906105ab565b602085019061028d565b60408301906105ab565b019061065e565b565b90565b6106c06106bb6106c5926106a9565b61044c565b6100f2565b90565b6106d1906106ac565b9052565b909594926107209461070f610719926107056080966106fb60a088019c5f8901906105ab565b602087019061028d565b60408501906106c8565b606083019061065e565b01906105ab565b565b9050519061072f826100f5565b565b909160c08284031261079057610749835f8401610722565b926107578160208501610722565b926107658260408301610722565b9261078d6107768460608501610722565b936107848160808601610722565b9360a001610722565b90565b61004c565b91906107a8905f602085019401906105ab565b565b5f7f6d696e2068656c746820666163746f7200000000000000000000000000000000910152565b6107de601060209261046b565b6107e7816107aa565b0190565b6108009060208101905f8183039101526107d1565b90565b1561080a57565b610812610042565b62461bcd60e51b815280610828600482016107eb565b0390fd5b61083590610537565b90565b62ffffff1690565b61084981610838565b0361085057565b5f80fd5b9050519061086182610840565b565b9060208282031261087c57610879915f01610854565b90565b61004c565b5190565b61088f60e061009f565b90565b9061089c906100c3565b9052565b906108aa90610838565b9052565b906108b8906100f2565b9052565b6108d06108cb6108d592610638565b61044c565b6100b8565b90565b906108e2906100b8565b9052565b906020828203126108ff576108fc915f01610722565b90565b61004c565b61090d906100c3565b9052565b61091a90610838565b9052565b610927906100f2565b9052565b610934906100b8565b9052565b9060c0806109b4936109505f8201515f860190610904565b61096260208201516020860190610904565b61097460408201516040860190610911565b61098660608201516060860190610904565b6109986080820151608086019061091e565b6109aa60a082015160a086019061091e565b015191019061092b565b565b91906109c9905f60e08501940190610938565b565b6109d3610438565b50610a036109e36080830161043c565b6109fd6109f7670de0b6b3a764000061044f565b916100f2565b116104cd565b610a1e610a19610a145f84016104f6565b61052b565b610543565b60206323b872dd913390610a585f610a353061054f565b95610a63610a44878a0161043c565b610a4c610042565b9889978896879561055f565b8552600485016105b8565b03925af18015610fe957610fbd575b50610a8e610a89610a845f84016104f6565b61052b565b610543565b602063095ea7b391610abf7f00000000000000000000000000000000000000000000000000000000000000006105fa565b90610ae75f610acf85880161043c565b95610af2610adb610042565b9788968795869461055f565b845260048401610606565b03925af18015610fb857610f8c575b50610b2b7f00000000000000000000000000000000000000000000000000000000000000006105fa565b63617ba037610b3b5f84016104f6565b610b476020850161043c565b92335f823b15610f87575f94610b7b8692610b7094610b64610042565b998a988997889661055f565b86526004860161066b565b03925af18015610f8257610f56575b50610bb47f00000000000000000000000000000000000000000000000000000000000000006105fa565b63a415bcad610bc5604084016104f6565b610bd16060850161043c565b926002925f3391833b15610f5157610c0a610bff935f97938894610bf3610042565b9a8b998a98899761055f565b8752600487016106d5565b03925af18015610f4c57610f20575b50610c7260c0610c487f00000000000000000000000000000000000000000000000000000000000000006105fa565b63bf92857c90610c673392610c5b610042565b9586948593849361055f565b835260048301610795565b03915afa8015610f1b57610cb6915f808080808096945050505050610ee9575b50610cb0610caa610ca56080860161043c565b6100f2565b916100f2565b11610803565b610cd2610ccd610cc8604084016104f6565b61052b565b610543565b602063095ea7b391610d037f000000000000000000000000000000000000000000000000000000000000000061082c565b90610d2c5f610d146060880161043c565b95610d37610d20610042565b9788968795869461055f565b845260048401610606565b03925af18015610ee457610eb8575b508060c00151610d5581610881565b60208201019060200190610d6891610863565b7f0000000000000000000000000000000000000000000000000000000000000000610d929061082c565b906304e45aaf9083604001610da6906104f6565b93805f01610db3906104f6565b91903381606001610dc39061043c565b9160a001610dd09061043c565b925f94610ddb610885565b985f8a0190610de991610892565b6020890190610df791610892565b6040880190610e05916108a0565b6060870190610e1391610892565b6080860190610e21916108ae565b60a0850190610e2f916108ae565b610e38906108bc565b60c0840190610e46916108d8565b610e4e610042565b8093610e5a829361055f565b82526004820190610e6a916109b6565b03815a6020945f91f1908115610eb3575f91610e85575b5090565b610ea6915060203d8111610eac575b610e9e8183610076565b8101906108e6565b5f610e81565b503d610e94565b6105ea565b610ed89060203d8111610edd575b610ed08183610076565b81019061058d565b610d46565b503d610ec6565b6105ea565b610f0a915060c03d8111610f14575b610f028183610076565b810190610731565b9450505050610c92565b503d610ef8565b6105ea565b610f3f905f3d8111610f45575b610f378183610076565b810190610629565b5f610c19565b503d610f2d565b6105ea565b61055b565b610f75905f3d8111610f7b575b610f6d8183610076565b810190610629565b5f610b8a565b503d610f63565b6105ea565b61055b565b610fac9060203d8111610fb1575b610fa48183610076565b81019061058d565b610b01565b503d610f9a565b6105ea565b610fdd9060203d8111610fe2575b610fd58183610076565b81019061058d565b610a72565b503d610fcb565b6105ea565b91906020838203126110165761101090611008602061009f565b935f01610722565b5f830152565b610054565b6fffffffffffffffffffffffffffffffff1690565b6110398161101b565b0361104057565b5f80fd5b9050519061105182611030565b565b64ffffffffff1690565b61106681611053565b0361106d57565b5f80fd5b9050519061107e8261105d565b565b6110898161063b565b0361109057565b5f80fd5b905051906110a182611080565b565b905051906110b0826100cf565b565b91906101e0838203126111e6576111de906110ce6101e061009f565b936110db825f8301610fee565b5f8601526110ec8260208301611044565b60208601526110fe8260408301611044565b60408601526111108260608301611044565b60608601526111228260808301611044565b60808601526111348260a08301611044565b60a08601526111468260c08301611071565b60c08601526111588260e08301611094565b60e086015261116b8261010083016110a3565b61010086015261117f8261012083016110a3565b6101208601526111938261014083016110a3565b6101408601526111a78261016083016110a3565b6101608601526111bb826101808301611044565b6101808601526111cf826101a08301611044565b6101a08601526101c001611044565b6101c0830152565b610054565b906101e08282031261120557611202915f016110b2565b90565b61004c565b634e487b7160e01b5f52601160045260245ffd5b61122d611233919392936100f2565b926100f2565b820391821161123e57565b61120a565b61127861127f9461126e606094989795611264608086019a5f8701906105ab565b602085019061028d565b60408301906106c8565b01906105ab565b565b6040906112aa6112b194969593966112a060608401985f8501906105ab565b602083019061028d565b01906105ab565b565b6112c76112c26112cc92610638565b61044c565b6100f2565b90565b906112d8610438565b506112e1610438565b506112ea610438565b506113066113016112fc5f85016104f6565b61052b565b610543565b60206323b872dd9133906113405f61131d3061054f565b9561134b61132c878b0161043c565b611334610042565b9889978896879561055f565b8552600485016105b8565b03925af18015611d3e57611d12575b5061137661137161136c5f85016104f6565b61052b565b610543565b602063095ea7b3916113a77f000000000000000000000000000000000000000000000000000000000000000061082c565b906113cf5f6113b785890161043c565b956113da6113c3610042565b9788968795869461055f565b845260048401610606565b03925af18015611d0d57611ce1575b508160c001516113f881610881565b6020820101906020019061140b91610863565b7f00000000000000000000000000000000000000000000000000000000000000006114359061082c565b6304e45aaf845f01611446906104f6565b9285606001611454906104f6565b903061145f9061054f565b8760200161146c9061043c565b908860a00161147a9061043c565b925f94611485610885565b985f8a019061149391610892565b60208901906114a191610892565b60408801906114af916108a0565b60608701906114bd91610892565b60808601906114cb916108ae565b60a08501906114d9916108ae565b6114e2906108bc565b60c08401906114f0916108d8565b6114f8610042565b8093611504829361055f565b82526004820190611514916109b6565b03815a6020945f91f1908115611cdc575f91611cae575b50906115916101e061155c7f00000000000000000000000000000000000000000000000000000000000000006105fa565b6335ea6a7590611586611571606089016104f6565b9261157a610042565b9586948593849361055f565b835260048301610795565b03915afa908115611ca9576115c76115c26115bd6101406115f1956020955f91611c7a575b50016104f6565b61052b565b610543565b6370a08231906115e633926115da610042565b9586948593849361055f565b835260048301610795565b03915afa8015611c7557611619915f91611c47575b506116136080860161043c565b90611d43565b611621610438565b928161163561162f836100f2565b916100f2565b11611b8f575b5061165861165361164e606087016104f6565b61052b565b610543565b602063095ea7b3916116897f00000000000000000000000000000000000000000000000000000000000000006105fa565b906116a85f8019956116b361169c610042565b9788968795869461055f565b845260048401610606565b03925af18015611b8a57611b5e575b5060206116ee7f00000000000000000000000000000000000000000000000000000000000000006105fa565b9163573ade81926117225f61170560608a016104f6565b939561172d60023390611716610042565b998a988997889661055f565b865260048601611243565b03925af18015611b5957611b2d575b506117a06101e061176c7f00000000000000000000000000000000000000000000000000000000000000006105fa565b6335ea6a75906117956117805f89016104f6565b92611789610042565b9586948593849361055f565b835260048301610795565b03915afa908115611b28576117c191610100915f91611af9575b50016104f6565b6117d26117cd8261052b565b610543565b6323b872dd90339061182360206117f96117f46117ee3061054f565b9761052b565b610543565b6370a0823190611818339261180c610042565b9586948593849361055f565b835260048301610795565b03915afa908115611af45760209461187761185861186c948c5f958692611abe575b506040611852910161043c565b90611d43565b611860610042565b9889978896879561055f565b8552600485016105b8565b03925af18015611ab957611a8d575b506118b07f00000000000000000000000000000000000000000000000000000000000000006105fa565b60206369328dec916118c35f87016104f6565b906118ed5f6118d460408a0161043c565b956118f8336118e1610042565b9889978896879561055f565b855260048501611281565b03925af1908115611a88575f91611a5a575b5061195e602061192c611927611922606089016104f6565b61052b565b610543565b6370a082319061195361193e3061054f565b92611947610042565b9586948593849361055f565b835260048301610795565b03915afa908115611a55575f91611a27575b50938461198561197f5f6112b3565b916100f2565b11611994575b50919291929190565b6119ab6119a660606119b093016104f6565b61052b565b610543565b602063a9059cbb9133906119d75f89956119e26119cb610042565b9788968795869461055f565b845260048401610606565b03925af18015611a22576119f6575b61198b565b611a169060203d8111611a1b575b611a0e8183610076565b81019061058d565b6119f1565b503d611a04565b6105ea565b611a48915060203d8111611a4e575b611a408183610076565b8101906108e6565b5f611970565b503d611a36565b6105ea565b611a7b915060203d8111611a81575b611a738183610076565b8101906108e6565b5f61190a565b503d611a69565b6105ea565b611aad9060203d8111611ab2575b611aa58183610076565b81019061058d565b611886565b503d611a9b565b6105ea565b611852919250611ae56040918c3d8111611aed575b611add8183610076565b8101906108e6565b929150611845565b503d611ad3565b6105ea565b611b1b91506101e03d8111611b21575b611b138183610076565b8101906111eb565b5f6117ba565b503d611b09565b6105ea565b611b4d9060203d8111611b52575b611b458183610076565b8101906108e6565b61173c565b503d611b3b565b6105ea565b611b7e9060203d8111611b83575b611b768183610076565b81019061058d565b6116c2565b503d611b6c565b6105ea565b909250611bae611ba9611ba4606087016104f6565b61052b565b610543565b9060206323b872dd923390611be95f611bc63061054f565b96611bf4611bd58b899061121e565b611bdd610042565b998a978896879561055f565b8552600485016105b8565b03925af1918215611c4257611c0f92611c16575b508361121e565b915f61163b565b611c369060203d8111611c3b575b611c2e8183610076565b81019061058d565b611c08565b503d611c24565b6105ea565b611c68915060203d8111611c6e575b611c608183610076565b8101906108e6565b5f611606565b503d611c56565b6105ea565b611c9c91506101e03d8111611ca2575b611c948183610076565b8101906111eb565b5f6115b6565b503d611c8a565b6105ea565b611ccf915060203d8111611cd5575b611cc78183610076565b8101906108e6565b5f61152b565b503d611cbd565b6105ea565b611d019060203d8111611d06575b611cf98183610076565b81019061058d565b6113e9565b503d611cef565b6105ea565b611d329060203d8111611d37575b611d2a8183610076565b81019061058d565b61135a565b503d611d20565b6105ea565b90611d4c610438565b5081611d60611d5a836100f2565b916100f2565b11155f14611d6d57505b90565b9050611d6a56fea26469706673582212201059de4f5164f7181d1d66cc5a4683f5aa935f7824e2e29318bf4d454f3ca2c964736f6c634300081c0033","linkReferences":{}},"methodIdentifiers":{"close((address,uint256,uint256,address,uint256,uint256,bytes))":"20cd4215","open((address,uint256,address,uint256,uint256,uint256,bytes))":"0130de75"},"id":24}