{"abi":[{"type":"function","name":"borrow","inputs":[{"name":"token","type":"address","internalType":"address"},{"name":"amount","type":"uint256","internalType":"uint256"}],"outputs":[],"stateMutability":"nonpayable"},{"type":"function","name":"getVariableDebt","inputs":[{"name":"token","type":"address","internalType":"address"}],"outputs":[{"name":"","type":"uint256","internalType":"uint256"}],"stateMutability":"view"},{"type":"function","name":"pool","inputs":[],"outputs":[{"name":"","type":"address","internalType":"contract IPool"}],"stateMutability":"view"},{"type":"function","name":"repay","inputs":[{"name":"token","type":"address","internalType":"address"}],"outputs":[{"name":"","type":"uint256","internalType":"uint256"}],"stateMutability":"nonpayable"},{"type":"function","name":"supply","inputs":[{"name":"token","type":"address","internalType":"address"},{"name":"amount","type":"uint256","internalType":"uint256"}],"outputs":[],"stateMutability":"nonpayable"}],"bytecode":{"object":"0x608060405234601c57600e6020565b610e8161002b8239610e8190f35b6026565b60405190565b5f80fdfe60806040526004361015610013575b61030f565b61001d5f3561006c565b806316f0115b14610067578063492a46a4146100625780634b8a35291461005d5780639f7c73e9146100585763f2b9fdb80361000e576102db565b6102a6565b610272565b6101e8565b610141565b60e01c90565b60405190565b5f80fd5b5f80fd5b5f91031261008a57565b61007c565b7387870bca3f3fd6335c3f4ce8392d69350b4fa4e290565b60018060a01b031690565b90565b6100c96100c46100ce926100a7565b6100b2565b6100a7565b90565b6100da906100b5565b90565b6100e6906100d1565b90565b6100f96100f461008f565b6100dd565b90565b6101046100e9565b90565b610110906100b5565b90565b61011c90610107565b90565b61012890610113565b9052565b919061013f905f6020850194019061011f565b565b3461017157610151366004610080565b61016d61015c6100fc565b610164610072565b9182918261012c565b0390f35b610078565b61017f906100a7565b90565b61018b81610176565b0361019257565b5f80fd5b905035906101a382610182565b565b906020828203126101be576101bb915f01610196565b90565b61007c565b90565b6101cf906101c3565b9052565b91906101e6905f602085019401906101c6565b565b34610218576102146102036101fe3660046101a5565b610640565b61020b610072565b918291826101d3565b0390f35b610078565b610226816101c3565b0361022d57565b5f80fd5b9050359061023e8261021d565b565b9190604083820312610268578061025c610265925f8601610196565b93602001610231565b90565b61007c565b5f0190565b346102a15761028b610285366004610240565b90610820565b610293610072565b8061029d8161026d565b0390f35b610078565b346102d6576102d26102c16102bc3660046101a5565b6109d3565b6102c9610072565b918291826101d3565b0390f35b610078565b3461030a576102f46102ee366004610240565b90610c8f565b6102fc610072565b806103068161026d565b0390f35b610078565b5f80fd5b5f90565b5f80fd5b601f801991011690565b634e487b7160e01b5f52604160045260245ffd5b906103439061031b565b810190811067ffffffffffffffff82111761035d57604052565b610325565b60e01b90565b5f80fd5b9061037f610378610072565b9283610339565b565b9050519061038e8261021d565b565b91906020838203126103b8576103b2906103aa602061036c565b935f01610381565b5f830152565b610368565b6fffffffffffffffffffffffffffffffff1690565b6103db816103bd565b036103e257565b5f80fd5b905051906103f3826103d2565b565b64ffffffffff1690565b610408816103f5565b0361040f57565b5f80fd5b90505190610420826103ff565b565b61ffff1690565b61043281610422565b0361043957565b5f80fd5b9050519061044a82610429565b565b9050519061045982610182565b565b91906101e08382031261058f57610587906104776101e061036c565b93610484825f8301610390565b5f86015261049582602083016103e6565b60208601526104a782604083016103e6565b60408601526104b982606083016103e6565b60608601526104cb82608083016103e6565b60808601526104dd8260a083016103e6565b60a08601526104ef8260c08301610413565b60c08601526105018260e0830161043d565b60e086015261051482610100830161044c565b61010086015261052882610120830161044c565b61012086015261053c82610140830161044c565b61014086015261055082610160830161044c565b6101608601526105648261018083016103e6565b610180860152610578826101a083016103e6565b6101a08601526101c0016103e6565b6101c0830152565b610368565b906101e0828203126105ae576105ab915f0161045b565b90565b61007c565b6105bc90610176565b9052565b91906105d3905f602085019401906105b3565b565b6105dd610072565b3d5f823e3d90fd5b6105ef9051610176565b90565b6105fb906100b5565b90565b610607906105f2565b90565b61061390610107565b90565b61061f90610107565b90565b9060208282031261063b57610638915f01610381565b90565b61007c565b6101e06106879161064f610313565b5061066061065b6100e9565b610113565b61067c6335ea6a75610670610072565b95869485938493610362565b8352600483016105c0565b03915afa908115610767576106bd6106b86106b36101406106ef956020955f91610738575b50016105e5565b6105fe565b61060a565b6370a08231906106e46106cf30610616565b926106d8610072565b95869485938493610362565b8352600483016105c0565b03915afa908115610733575f91610705575b5090565b610726915060203d811161072c575b61071e8183610339565b810190610622565b5f610701565b503d610714565b6105d5565b61075a91506101e03d8111610760575b6107528183610339565b810190610594565b5f6106ac565b503d610748565b6105d5565b5f91031261077657565b61007c565b90565b61079261078d6107979261077b565b6100b2565b6101c3565b90565b6107a39061077e565b9052565b90565b6107be6107b96107c3926107a7565b6100b2565b610422565b90565b6107cf906107aa565b9052565b9095949261081e9461080d610817926108036080966107f960a088019c5f8901906105b3565b60208701906101c6565b604085019061079a565b60608301906107c6565b01906105b3565b565b61083061082b6100e9565b610113565b9163a415bcad9190926002925f61084630610616565b91833b156108bc5761087961086e935f97938894610862610072565b9a8b998a988997610362565b8752600487016107d3565b03925af180156108b75761088b575b50565b6108aa905f3d81116108b0575b6108a28183610339565b81019061076c565b5f610888565b503d610898565b6105d5565b610317565b634e487b7160e01b5f52601160045260245ffd5b6108e46108ea919392936101c3565b926101c3565b82039182116108f557565b6108c1565b151590565b610908816108fa565b0361090f57565b5f80fd5b90505190610920826108ff565b565b9060208282031261093b57610938915f01610913565b90565b61007c565b604090610969610970949695939661095f60608401985f8501906105b3565b60208301906105b3565b01906101c6565b565b91602061099392949361098c60408201965f8301906105b3565b01906101c6565b565b6109ca6109d1946109c06060949897956109b6608086019a5f8701906105b3565b60208501906101c6565b604083019061079a565b01906105b3565b565b6109db610313565b50610a2460206109f26109ed846105fe565b61060a565b6370a0823190610a19610a0430610616565b92610a0d610072565b95869485938493610362565b8352600483016105c0565b03915afa908115610c4c575f91610c1e575b50610a4082610640565b9081610a54610a4e836101c3565b916101c3565b11610b85575b506020610a6e610a69846105fe565b61060a565b9163095ea7b392610aa25f610a89610a846100e9565b610113565b9395610aad610a96610072565b97889687958694610362565b845260048401610972565b03925af18015610b8057610b54575b506020610acf610aca6100e9565b610113565b63573ade819290610b005f801995610b0b6002610aeb30610616565b90610af4610072565b998a9889978896610362565b865260048601610995565b03925af1908115610b4f575f91610b21575b5090565b610b42915060203d8111610b48575b610b3a8183610339565b810190610622565b5f610b1d565b503d610b30565b6105d5565b610b749060203d8111610b79575b610b6c8183610339565b810190610922565b610abc565b503d610b62565b6105d5565b6020610b98610b93856105fe565b61060a565b6323b872dd90610bce5f3393610bd9610bba610bb330610616565b988a6108d5565b610bc2610072565b98899788968795610362565b855260048501610940565b03925af18015610c1957610bed575b610a5a565b610c0d9060203d8111610c12575b610c058183610339565b810190610922565b610be8565b503d610bfb565b6105d5565b610c3f915060203d8111610c45575b610c378183610339565b810190610622565b5f610a36565b503d610c2d565b6105d5565b610c86610c8d94610c7c606094989795610c72608086019a5f8701906105b3565b60208501906101c6565b60408301906105b3565b01906107c6565b565b610ca0610c9b826105fe565b61060a565b60206323b872dd913390610cd05f610cb730610616565b95610cdb89610cc4610072565b98899788968795610362565b855260048501610940565b03925af18015610e4657610e1a575b50610cfc610cf7826105fe565b61060a565b602063095ea7b391610d14610d0f6100e9565b610113565b90610d325f8795610d3d610d26610072565b97889687958694610362565b845260048401610972565b03925af18015610e1557610de9575b50610d5d610d586100e9565b610113565b9163617ba037919092610d6f30610616565b5f823b15610de4575f94610da18692610d9694610d8a610072565b998a9889978896610362565b865260048601610c51565b03925af18015610ddf57610db3575b50565b610dd2905f3d8111610dd8575b610dca8183610339565b81019061076c565b5f610db0565b503d610dc0565b6105d5565b610317565b610e099060203d8111610e0e575b610e018183610339565b810190610922565b610d4c565b503d610df7565b6105d5565b610e3a9060203d8111610e3f575b610e328183610339565b810190610922565b610cea565b503d610e28565b6105d556fea2646970667358221220d96fdfab6dd7639f37d4353a28e4757995c837618d9dded8676022cdd5e05bad64736f6c634300081c0033","linkReferences":{}},"methodIdentifiers":{"borrow(address,uint256)":"4b8a3529","getVariableDebt(address)":"492a46a4","pool()":"16f0115b","repay(address)":"9f7c73e9","supply(address,uint256)":"f2b9fdb8"},"id":28}