{"abi":[{"type":"function","name":"executeOperation","inputs":[{"name":"asset","type":"address","internalType":"address"},{"name":"amount","type":"uint256","internalType":"uint256"},{"name":"fee","type":"uint256","internalType":"uint256"},{"name":"initiator","type":"address","internalType":"address"},{"name":"params","type":"bytes","internalType":"bytes"}],"outputs":[{"name":"","type":"bool","internalType":"bool"}],"stateMutability":"nonpayable"},{"type":"function","name":"flash","inputs":[{"name":"token","type":"address","internalType":"address"},{"name":"amount","type":"uint256","internalType":"uint256"}],"outputs":[],"stateMutability":"nonpayable"},{"type":"function","name":"pool","inputs":[],"outputs":[{"name":"","type":"address","internalType":"contract IPool"}],"stateMutability":"view"}],"bytecode":{"object":"0x608060405234601c57600e6020565b61099861002b823961099890f35b6026565b60405190565b5f80fdfe60806040526004361015610013575b610333565b61001d5f3561004c565b80630b187dd31461004757806316f0115b1461004257631b11d0ff0361000e576102f7565b6101e0565b6100f6565b60e01c90565b60405190565b5f80fd5b5f80fd5b5f80fd5b60018060a01b031690565b61007890610064565b90565b6100848161006f565b0361008b57565b5f80fd5b9050359061009c8261007b565b565b90565b6100aa8161009e565b036100b157565b5f80fd5b905035906100c2826100a1565b565b91906040838203126100ec57806100e06100e9925f860161008f565b936020016100b5565b90565b61005c565b5f0190565b346101255761010f6101093660046100c4565b906104ae565b610117610052565b80610121816100f1565b0390f35b610058565b5f91031261013457565b61005c565b7387870bca3f3fd6335c3f4ce8392d69350b4fa4e290565b90565b61016861016361016d92610064565b610151565b610064565b90565b61017990610154565b90565b61018590610170565b90565b610198610193610139565b61017c565b90565b6101a3610188565b90565b6101af90610154565b90565b6101bb906101a6565b90565b6101c7906101b2565b9052565b91906101de905f602085019401906101be565b565b34610210576101f036600461012a565b61020c6101fb61019b565b610203610052565b918291826101cb565b0390f35b610058565b5f80fd5b5f80fd5b5f80fd5b909182601f8301121561025b5781359167ffffffffffffffff831161025657602001926001830284011161025157565b61021d565b610219565b610215565b91909160a0818403126102cb57610279835f830161008f565b9261028781602084016100b5565b9261029582604085016100b5565b926102a3836060830161008f565b92608082013567ffffffffffffffff81116102c6576102c29201610221565b9091565b610060565b61005c565b151590565b6102de906102d0565b9052565b91906102f5905f602085019401906102d5565b565b3461032e5761032a61031961030d366004610260565b949390939291926107d4565b610321610052565b918291826102e2565b0390f35b610058565b5f80fd5b610340906101a6565b90565b61034c9061006f565b9052565b9190610363905f60208501940190610343565b565b601f801991011690565b634e487b7160e01b5f52604160045260245ffd5b9061038d90610365565b810190811067ffffffffffffffff8211176103a757604052565b61036f565b5f80fd5b60e01b90565b5f9103126103c057565b61005c565b6103ce9061009e565b9052565b5190565b60209181520190565b90825f9392825e0152565b61040961041260209361041793610400816103d2565b938480936103d6565b958691016103df565b610365565b0190565b90565b61ffff1690565b61043961043461043e9261041b565b610151565b61041e565b90565b61044a90610425565b9052565b61049c946104878298979561047d608096610473610494975f60a08901980190610343565b60208c0190610343565b60408a01906103c5565b87820360608901526103ea565b940190610441565b565b6104a6610052565b3d5f823e3d90fd5b6104be6104b9610188565b6101b2565b906342b0b77c916104ce30610337565b9193926104ec6104fb336104e0610052565b92839160208301610350565b60208201810382520382610383565b5f91833b156105725761052f610524935f97938894610518610052565b9a8b998a9889976103b0565b87526004870161044e565b03925af1801561056d57610541575b50565b610560905f3d8111610566575b6105588183610383565b8101906103b6565b5f61053e565b503d61054e565b61049e565b6103ac565b5f90565b60209181520190565b5f7f6e6f7420617574686f72697a6564000000000000000000000000000000000000910152565b6105b8600e60209261057b565b6105c181610584565b0190565b6105da9060208101905f8183039101526105ab565b90565b156105e457565b6105ec610052565b62461bcd60e51b815280610602600482016105c5565b0390fd5b5f7f696e76616c696420696e69746961746f72000000000000000000000000000000910152565b61063a601160209261057b565b61064381610606565b0190565b61065c9060208101905f81830391015261062d565b90565b1561066657565b61066e610052565b62461bcd60e51b81528061068460048201610647565b0390fd5b61069190610064565b90565b61069d81610688565b036106a457565b5f80fd5b905035906106b582610694565b565b906020828203126106d0576106cd915f016106a8565b90565b61005c565b6106de906101a6565b90565b6106ea90610154565b90565b6106f6906106e1565b90565b610702906101a6565b90565b61070e816102d0565b0361071557565b5f80fd5b9050519061072682610705565b565b906020828203126107415761073e915f01610719565b90565b61005c565b60409061076f610776949695939661076560608401985f850190610343565b6020830190610343565b01906103c5565b565b634e487b7160e01b5f52601160045260245ffd5b61079b6107a19193929361009e565b9261009e565b82018092116107ac57565b610778565b9160206107d29294936107cb60408201965f830190610343565b01906103c5565b565b9394610845929561083761084093956107eb610577565b506108173361081161080b610806610801610188565b6101b2565b61006f565b9161006f565b146105dd565b61083161082b61082630610337565b61006f565b9161006f565b1461065f565b908101906106b7565b6106d5565b6020610858610853856106ed565b6106f9565b6323b872dd92906108855f61086c30610337565b956108908a610879610052565b988997889687956103b0565b855260048501610746565b03925af1801561095d576020936108b5926108b092610932575b506106ed565b6106f9565b6108e15f6108c963095ea7b396339561078c565b956108ec6108d5610052565b978896879586946103b0565b8452600484016107b1565b03925af1801561092d57610901575b50600190565b6109219060203d8111610926575b6109198183610383565b810190610728565b6108fb565b503d61090f565b61049e565b61095190863d8111610956575b6109498183610383565b810190610728565b6108aa565b503d61093f565b61049e56fea2646970667358221220aa296f2838818190229d619e654648c6f766ed6bb9d6c61fb4de3115bdad64bc64736f6c634300081c0033","linkReferences":{}},"methodIdentifiers":{"executeOperation(address,uint256,uint256,address,bytes)":"1b11d0ff","flash(address,uint256)":"0b187dd3","pool()":"16f0115b"},"id":25}